:020000040800F2
:1000000000500020610F0008C90E0008CF0E000844
:10001000D50E0008DB0E0008E10E0008000000000D
:10002000000000000000000000000000E70E0008D3
:10003000F30E000800000000FF0E00080B0F000880
:10004000A90F0008A90F0008A90F0008A90F0008B0
:10005000A90F0008A90F0008A90F0008A90F0008A0
:10006000A90F0008A90F0008A90F0008A90F000890
:10007000A90F0008A90F0008A90F0008A90F000880
:10008000A90F0008A90F0008190F0008A90F000800
:10009000A90F0008A90F0008A90F0008A90F000860
:1000A000A90F0008A90F0008A90F0008A90F000850
:1000B000A90F00082D0F0008410F0008A90F000824
:1000C000A90F0008A90F0008A90F0008A90F000830
:1000D000A90F0008A90F0008A90F0008A90F000820
:1000E000A90F0008A90F0008A90F000800000000D0
:1000F0000000000000000000000000000000000000
:0C01000000000000000000005FF808F1A3
:1001100010B5054C237833B9044B13B10448AFF341
:1001200000800123237010BD0C000020000000009F
:100130003835000808B5034B1BB103490348AFF33A
:10014000008008BD000000001000002038350008C5
:1001500070B54FF0FF0C4CF4E06C1CEA11541DBF5D
:100160001CEA135594EA0C0F95EA0C0F00F0DEF828
:100170002C4481EA030621EA4C5123EA4C5350EA0D
:10018000013518BF52EA033541F4801143F480135E
:1001900038D0A0FB02CE4FF00005E1FB02E506F0EF
:1001A0000042E0FB03E54FF00006E1FB03569CF044
:1001B000000F18BF4EF0010EA4F1FF04B6F5007F4A
:1001C00064F5407404D25FEA4E0E6D4146EB0606BC
:1001D00042EAC62141EA55514FEAC52040EA5E5045
:1001E0004FEACE2EB4F1FD0C88BFBCF5E06F1ED8EF
:1001F000BEF1004F08BF5FEA500E50F1000041EB26
:10020000045170BD06F0004646EA010140EA0200D2
:1002100081EA0301B4EB5C04C2BFD4EB0C0541EAF4
:10022000045170BD41F480114FF0000E013C00F309
:10023000AB8014F1360FDEBF002001F0004170BD2D
:10024000C4F10004203C35DA0C341BDC04F1140446
:10025000C4F1200500FA05F320FA04F001FA05F2D2
:1002600040EA020001F0004221F0004110EBD3709F
:1002700021FA04F642EB06015EEA430E08BF20EACB
:10028000D37070BDC4F10C04C4F1200500FA04F36E
:1002900020FA05F001FA04F240EA020001F0004100
:1002A00010EBD37041F100015EEA430E08BF20EA73
:1002B000D37070BDC4F1200500FA05F24EEA020EBB
:1002C00020FA04F301FA05F243EA020321FA04F0EA
:1002D00001F0004121FA04F220EA020000EBD370A1
:1002E0005EEA430E08BF20EAD37070BD94F0000FA1
:1002F0000FD101F00046400041EB010111F4801FD5
:1003000008BF013CF7D041EA060195F0000F18BF85
:10031000704703F00046520043EB030313F4801FC1
:1003200008BF013DF7D043EA0603704794EA0C0F7B
:100330000CEA135518BF95EA0C0F0CD050EA410691
:1003400018BF52EA4306D1D181EA030101F000410E
:100350004FF0000070BD50EA410606BF1046194636
:1003600052EA430619D094EA0C0F02D150EA013642
:1003700013D195EA0C0F05D152EA03361CBF104683
:1003800019460AD181EA030101F0004141F0FE4122
:1003900041F470014FF0000070BD41F0FE4141F4A6
:1003A000780170BD81F0004102E000BF83F000439E
:1003B00030B54FEA41044FEA430594EA050F08BF00
:1003C00090EA020F1FBF54EA000C55EA020C7FEAC4
:1003D000645C7FEA655C00F0E2804FEA5454D4EB41
:1003E0005555B8BF6D420CDD2C4480EA020281EA0B
:1003F000030382EA000083EA010180EA020281EA43
:100400000303362D88BF30BD11F0004F4FEA013194
:100410004FF4801C4CEA113102D0404261EB4101A3
:1004200013F0004F4FEA03334CEA133302D0524229
:1004300063EB430394EA050F00F0A780A4F10104E5
:10044000D5F1200E0DDB02FA0EFC22FA05F280181F
:1004500041F1000103FA0EF2801843FA05F3594105
:100460000EE0A5F120050EF1200E012A03FA0EFC84
:1004700028BF4CF0020C43FA05F3C01851EBE371AE
:1004800001F0004507D54FF0000EDCF1000C7EEBCB
:1004900000006EEB0101B1F5801F1BD3B1F5001F09
:1004A0000CD349085FEA30004FEA3C0C04F1010428
:1004B0004FEA445212F5800F80F09A80BCF1004F51
:1004C00008BF5FEA500C50F1000041EB045141EAD3
:1004D000050130BD5FEA4C0C404141EB0101013C9C
:1004E00028BFB1F5801FE9D291F0000F04BF01468B
:1004F0000020B1FA81F308BF2033A3F10B03B3F15D
:1005000020020CDA0C3208DD02F1140CC2F10C02EC
:1005100001FA0CF021FA02F10CE002F11402D8BF4A
:10052000C2F1200C01FA02F120FA0CFCDCBF41EA16
:100530000C019040E41AA2BF01EB0451294330BDE5
:100540006FEA04041F3C1CDA0C340EDC04F11404C2
:10055000C4F1200220FA04F001FA02F340EA030099
:1005600021FA04F345EA030130BDC4F10C04C4F1DF
:10057000200220FA02F001FA04F340EA03002946BF
:1005800030BD21FA04F0294630BD94F0000F83F409
:10059000801306BF81F480110134013D4EE77FEAEC
:1005A000645C18BF7FEA655C29D094EA050F08BF38
:1005B00090EA020F05D054EA000C04BF1946104619
:1005C00030BD91EA030F1EBF0021002030BD5FEA5D
:1005D000545C05D14000494128BF41F0004130BD85
:1005E00014F580043CBF01F5801130BD01F00045D9
:1005F00045F0FE4141F470014FF0000030BD7FEA4C
:10060000645C1ABF194610467FEA655C1CBF0B4646
:10061000024650EA013406BF52EA033591EA030F5D
:1006200041F4002130BD00BF90F0000F04BF002155
:10063000704730B54FF4806404F132044FF0000588
:100640004FF0000150E700BF90F0000F04BF002101
:10065000704730B54FF4806404F1320410F0004567
:1006600048BF40424FF000013EE700BF42004FEA62
:10067000E2014FEA31014FEA02701FBF12F07F43DF
:1006800093F07F4F81F06051704732F07F4208BF96
:10069000704793F07F4F04BF41F40021704730B59D
:1006A0004FF4607401F0004521F000411CE700BFE9
:1006B00050EA010208BF704730B54FF000050AE06C
:1006C00050EA010208BF704730B511F0004502D56D
:1006D000404261EB41014FF4806404F132045FEA6F
:1006E000915C3FF4D8AE4FF003025FEADC0C18BF18
:1006F00003325FEADC0C18BF033202EBDC02C2F10A
:10070000200300FA03FC20FA02F001FA03FE40EA9B
:100710000E0021FA02F11444BDE600BF4A0011D2D6
:1007200012F5001211D20DD56FF47873B3EB62524B
:100730000ED44FEAC12343F0004343EA505323FA57
:1007400002F070474FF00000704750EA013002D1CC
:100750004FF0FF3070474FF00000704780B500AF9A
:1007600000F024FC00F030F800F09AF900F0C6F830
:1007700000F086F800F0F8F800F044F900F0D4F941
:1007800002210D4801F04BFB0346002B01D000F085
:1007900091FA094801F030FA0346002B01D000F02D
:1007A00089FA064800F03CFD054802F0EBFA0548DE
:1007B00002F0E8FAFEE700BF580000202800002001
:1007C00080000020C800002080B594B000AF07F181
:1007D000280328220021184602F082FE07F11403A4
:1007E00000221A605A609A60DA601A613B1D00228A
:1007F0001A605A609A60DA600123BB624FF480335A
:10080000FB6200233B630123BB6302237B644FF441
:100810008033BB644FF4E013FB6407F128031846F0
:1008200001F0CCFD0346002B01D000F043FA0F236A
:100830007B610223BB610023FB614FF480633B6259
:1008400000237B6207F114030221184602F038F8F6
:100850000346002B01D000F02DFA02237B604FF4F9
:100860000043FB603B1D184602F086F90346002B4F
:1008700001D000F01FFA00BF5037BD4680BD000018
:1008800080B584B000AF3B1D00221A605A609A60A8
:10089000184B194A1A60174B00229A60154B012217
:1008A0001A73144B00221A75124B4FF46022DA614E
:1008B000104B00225A600F4B01221A610D4800F0C4
:1008C000D7FB0346002B01D000F0F4F900237B6036
:1008D0000123BB600723FB603B1D1946054800F060
:1008E0002BFE0346002B01D000F0E4F900BF1037C7
:1008F000BD4680BD280000200024014080B500AF27
:10090000174B184A1A60164B08225A60144B0022E3
:100910009A60134B0022DA60114B4FF460221A6187
:100920000F4B4FF480125A610D4B00221A760C4B7C
:1009300000225A760A4B00229A76094B0022DA7678
:10094000074B00221A77064B00225A77044800F022
:100950008FFF0346002B01D000F0ACF900BF80BD33
:10096000580000200064004080B586B000AF07F159
:10097000080300221A605A609A60DA603B4600223F
:100980001A605A601D4B1E4A1A601C4B48F69F4263
:100990005A601A4B00229A60184B40F2CF72DA600C
:1009A000164B00221A61154B80229A61134802F0FF
:1009B00099F90346002B01D000F07CF94FF48053E5
:1009C000BB6007F1080319460C4802F035FB0346EB
:1009D000002B01D000F06EF900233B6000237B6008
:1009E0003B461946054802F00BFD0346002B01D09B
:1009F00000F060F900BF1837BD4680BD80000020C0
:100A00000004004080B586B000AF07F10803002263
:100A10001A605A609A60DA603B4600221A605A6097
:100A20001D4B1E4A1A601C4B48F69F425A601A4BD7
:100A300000229A60184B40F2F312DA60164B002243
:100A40001A61154B80229A61134802F04BF9034654
:100A5000002B01D000F02EF94FF48053BB6007F15A
:100A6000080319460C4802F0E7FA0346002B01D0B0
:100A700000F020F900233B6000237B603B461946D1
:100A8000054802F0BDFC0346002B01D000F012F92E
:100A900000BF1837BD4680BDC800002000080040D8
:100AA00080B588B000AF07F1100300221A605A60C9
:100AB0009A60DA601A4B9B69194A43F020039361EC
:100AC000174B9B6903F02003FB60FB68144B9B6989
:100AD000134A43F004039361114B9B6903F0040331
:100AE000BB60BB680E4B9B690D4A43F008039361E2
:100AF0000B4B9B6903F008037B607B684FF400732A
:100B00003B6100237B610023BB6107F110031946A1
:100B1000044801F0B7FA00BF2037BD4680BD00BFD2
:100B200000100240000C014080B58AB000AF0123E4
:100B30003B6200237B6100233B6100233B60002379
:100B40007B600023BB600023FB600023BB610123AB
:100B5000FB613B461946064800F085FF0346002B23
:100B600001D000F0A7F800BF2837BD4680BD00BF08
:100B70005800002080B582B000AF78607B681B68A9
:100B8000094A934205D1094B1B88184600F014F816
:100B900006E07B681B68064A934201D100F05AF8D0
:100BA00000BF0837BD4680BD000400401201002090
:100BB000000800400000000080B58AB000AF034686
:100BC000FB80214800F0DAFB03469AB21F4B1A80E3
:100BD0001E4B1B881846FFF737FD19A3D3E90023E6
:100BE000FFF7B6FA02460B4610461946FFF796FD88
:100BF0000346FB80FB881B0A9BB2DBB23B72FB887F
:100C0000DBB27B7202233B624FF4CA633B61002379
:100C1000BB610023FB6107F10C0307F1080207F138
:100C200010010B4801F02CF80346002B01D000F016
:100C300041F800BF2837BD4680BD00BFAFF300803C
:100C40007B14AE47E17AB43F280000201001002059
:100C50005800002080B58AB000AF4FF400711348EF
:100C600001F094FB034687F8273097F82730012BD3
:100C700017D101233B710123FB6140F25263FB60FA
:100C800000237B610023BB6107F108033A1D07F1D4
:100C90000C01074800F0F4FF0346002B01D000F0E0
:100CA00009F800BF2837BD4680BD00BF000C0140D9
:100CB0005800002080B400AF72B600BFFEE700000D
:100CC00080B485B000AF154B9B69144A43F0010313
:100CD0009361124B9B6903F00103BB60BB680F4B30
:100CE000DB690E4A43F08053D3610C4BDB6903F0A0
:100CF00080537B607B680A4B5B68FB60FB6823F07A
:100D0000E063FB60FB6843F00073FB60044AFB6830
:100D1000536000BF1437BD4680BC704700100240CE
:100D20000000014080B588B000AF786007F1100383
:100D300000221A605A609A60DA607B681B68184A61
:100D4000934229D1174B9B69164A43F40073936170
:100D5000144B9B6903F40073FB60FB68114B9B69A8
:100D6000104A43F0040393610E4B9B6903F00403A4
:100D7000BB60BB6801233B6103237B6107F1100368
:100D80001946094801F07EF900220021122001F0E5
:100D900042F9122001F05BF900BF2037BD4680BD4B
:100DA00000240140001002400008014080B588B0D6
:100DB00000AF786007F1100300221A605A609A6051
:100DC000DA607B681B681C4A934231D11B4BDB699C
:100DD0001A4A43F00073D361184BDB6903F00073C8
:100DE000FB60FB68154B9B69144A43F00403936155
:100DF000124B9B6903F00403BB60BB684FF40063B4
:100E00003B6100237B610023BB6107F1100319469E
:100E10000B4801F037F94FF480533B6102237B61AB
:100E20000323FB6107F110031946054801F02AF975
:100E300000BF2037BD4680BD006400400010024066
:100E40000008014080B584B000AF78607B681B6803
:100E50001A4A934214D11A4BDB69194A43F0020330
:100E6000D361174BDB6903F00203FB60FB680022D0
:100E700000211D2001F0CFF81D2001F0E8F818E056
:100E80007B681B680F4A934213D10D4BDB690C4AF8
:100E900043F00403D3610A4BDB6903F00403BB6036
:100EA000BB68002200211E2001F0B5F81E2001F0D1
:100EB000CEF800BF1037BD4680BD00BF0004004023
:100EC000001002400008004080B400AFFEE780B48C
:100ED00000AFFEE780B400AFFEE780B400AFFEE7EE
:100EE00080B400AFFEE780B400AF00BFBD4680BC59
:100EF000704780B400AF00BFBD4680BC704780B46F
:100F000000AF00BFBD4680BC704780B500AF00F0A9
:100F100093F800BF80BD000080B500AF024800F02C
:100F200039FA00BF80BD00BF2800002080B500AFA7
:100F3000024801F079FF00BF80BD00BF80000020A3
:100F400080B500AF024801F06FFF00BF80BD00BF59
:100F5000C800002080B400AF00BFBD4680BC704711
:100F6000FFF7F8FF0B480C490C4A002302E0D45865
:100F7000C4500433C4188C42F9D3094A094C0023E5
:100F800001E013600432A242FBD302F0B1FAFFF792
:100F9000E5FB7047000000200C0000207C350008B5
:100FA0000C00002018010020FEE7000080B500AF13
:100FB000084B1B68074A43F010031360032001F03D
:100FC0001FF80F2000F008F8FFF77AFE00231846FC
:100FD00080BD00BF0020024080B582B000AF7860C5
:100FE000124B1A68124B1B7819464FF47A73B3FBF5
:100FF000F1F3B2FBF3F3184601F037F80346002B88
:1010000001D001230EE07B680F2B0AD800227968FB
:101010004FF0FF3000F0FFFF064A7B6813600023AB
:1010200000E0012318460837BD4680BD00000020BF
:10103000080000200400002080B400AF054B1B789E
:101040001A46054B1B681344034A136000BFBD4694
:1010500080BC7047080000201401002080B400AF5D
:10106000024B1B681846BD4680BC70471401002027
:1010700080B586B000AF78600023FB7500233B612C
:101080000023BB600023FB607B68002B01D10123A0
:10109000BEE07B689B68002B7B689B6A002B09D1B4
:1010A0007B680022DA627B68002283F8242078685B
:1010B000FFF738FE786800F091FB0346FB757B680C
:1010C0009B6A03F01003002B40F09980FB7D002BFE
:1010D00040F095807B689B6A23F4885323F00203D9
:1010E00043F002027B689A627B685A687B68DB691E
:1010F0001A437B681B7B5B001343BA681343BB60D6
:101100007B689B68B3F5807F03D07B689B68012B6D
:1011100002D14FF4807300E000233A6913433B612E
:101120007B681B7D012B19D17B681B7B002B09D1B0
:101130007B689B69013B5A033B69134343F400639B
:101140003B610BE07B689B6A43F020027B689A62FC
:101150007B68DB6A43F001027B68DA627B681B68AC
:101160005B6823F469417B681B683A690A435A60EB
:101170007B681B689A68284B13407A681268B968C4
:101180000B4393607B689B68B3F5807F03D07B68DB
:101190009B68012B04D17B681B69013B1B05FB602D
:1011A0007B681B68DB6A23F470017B681B68FA6844
:1011B0000A43DA627B681B689A68184B1340BA6866
:1011C0009A420BD17B680022DA627B689B6A23F02B
:1011D000030343F001027B689A6218E07B689B6A14
:1011E00023F0120343F010027B689A627B68DB6A8B
:1011F00043F001027B68DA620123FB7507E07B683C
:101200009B6A43F010027B689A620123FB75FB7DA9
:1012100018461837BD4680BDFDF7E1FFFE0E1FFFE3
:1012200080B584B000AF78600023FB737B6893F8CF
:101230002430012B01D1022398E07B68012283F83E
:101240002420786800F070FA0346FB73FB7B002BC8
:1012500040F087807B689B6A23F4407323F001038E
:1012600043F480727B689A627B681B68414A9342B0
:1012700005D1414B5B6803F47023002B15D17B68CB
:101280009B6A23F480127B689A627B681B685B68A8
:1012900003F48063002B26D07B689B6A23F44053C1
:1012A00043F480527B689A621DE07B689B6A43F43A
:1012B00080127B689A627B681B682F4A934204D035
:1012C0007B681B682B4A93420DD12B4B5B6803F460
:1012D0008063002B07D07B689B6A23F4405343F460
:1012E00080527B689A627B689B6A03F48053002B70
:1012F00006D07B68DB6A23F006027B68DA6202E0D4
:101300007B680022DA627B68002283F824207B68F5
:101310001B686FF002021A607B681B689B6803F40D
:101320006023B3F5602F13D17B681B68114A934289
:1013300005D1114B5B6803F47023002B08D17B6847
:101340001B689A687B681B6842F4A0029A600CE0F4
:101350007B681B689A687B681B6842F480129A60FD
:1013600003E07B68002283F82420FB7B18461037BB
:10137000BD4680BD002801400024014080B483B0F8
:1013800000AF78607B681B68DB6C18460C37BD4685
:1013900080BC704780B584B000AF78607B681B6804
:1013A0001B68FB607B681B685B68BB60BB6803F005
:1013B0002003002B3ED0FB6803F00203002B39D042
:1013C0007B689B6A03F01003002B05D17B689B6A46
:1013D00043F400727B689A627B681B689B6803F425
:1013E0006023B3F5602F1DD17B681B7B002B19D1C7
:1013F0007B681B685A687B681B6822F020025A6071
:101400007B689B6A23F480727B689A627B689B6A24
:1014100003F48053002B05D17B689B6A43F00102E3
:101420007B689A62786800F074F87B681B686FF0DC
:1014300012021A60BB6803F08003002B4DD0FB68DA
:1014400003F00403002B48D07B689B6A03F0100371
:10145000002B05D17B689B6A43F400527B689A623B
:101460007B681B689B6803F4E043B3F5E04F12D040
:101470007B681B685B6803F48063002B25D17B6865
:101480001B689B6803F46023B3F5602F1DD17B6854
:101490001B7B002B19D17B681B685A687B681B6813
:1014A00022F080025A607B689B6A23F480527B683A
:1014B0009A627B689B6A03F48073002B05D17B687A
:1014C0009B6A43F001027B689A62786800F0C7F972
:1014D0007B681B686FF00C021A60BB6803F0400366
:1014E000002B12D0FB6803F00103002B0DD07B68AA
:1014F0009B6A43F480327B689A62786800F012F845
:101500007B681B686FF001021A6000BF1037BD4690
:1015100080BD80B483B000AF786000BF0C37BD469B
:1015200080BC704780B483B000AF786000BF0C37D8
:10153000BD4680BC7047000080B485B000AF7860C5
:1015400039600023FB730023BB607B6893F8243071
:10155000012B01D10223DCE07B68012283F82420E7
:101560003B685B68062B1CD87B681B68596B3B6823
:101570005A6813469B001344053B1F2202FA03F3EB
:10158000DB4319403B6818683B685A6813469B0068
:101590001344053B00FA03F27B681B680A435A6355
:1015A0003CE03B685B680C2B1CD87B681B68196BA4
:1015B0003B685A6813469B001344233B1F2202FAE0
:1015C00003F3DB4319403B6818683B685A681346CD
:1015D0009B001344233B00FA03F27B681B680A4319
:1015E0001A631BE07B681B68D96A3B685A6813461C
:1015F0009B001344413B1F2202FA03F3DB431940D3
:101600003B6818683B685A6813469B001344413B8B
:1016100000FA03F27B681B680A43DA623B681B68C6
:10162000092B1CD97B681B68D9683B681A6813466C
:101630005B0013441E3B072202FA03F3DB4319400D
:101640003B6898683B681A6813465B0013441E3B6E
:1016500000FA03F27B681B680A43DA6019E07B68D2
:101660001B6819693B681A6813465B00134407221C
:1016700002FA03F3DB4319403B6898683B681A6839
:1016800013465B00134400FA03F27B681B680A43AD
:101690001A613B681B68102B03D03B681B68112B39
:1016A00032D17B681B681D4A934225D17B681B6839
:1016B0009B6803F40003002B26D17B681B689A68A3
:1016C0007B681B6842F400029A603B681B68102B21
:1016D0001AD1134B1B68134AA2FB03239A0C13461F
:1016E0009B0013445B00BB6002E0BB68013BBB6036
:1016F000BB68002BF9D107E07B689B6A43F02002AE
:101700007B689A620123FB737B68002283F82420A4
:10171000FB7B18461437BD4680BC7047002401404F
:101720000000002083DE1B4380B584B000AF7860EA
:101730000023FB600023BB607B681B689B6803F091
:101740000103012B40D07B681B689A687B681B688B
:1017500042F001029A601F4B1B681F4AA2FB032341
:101760009B0CBB6002E0BB68013BBB60BB68002B0D
:10177000F9D1FFF773FCF8601FE0FFF76FFC02463A
:10178000FB68D31A022B18D97B681B689B6803F08F
:101790000103012B11D07B689B6A43F010027B6828
:1017A0009A627B68DB6A43F001027B68DA627B68DD
:1017B000002283F82420012307E07B681B689B68D4
:1017C00003F00103012BD8D1002318461037BD4682
:1017D00080BD00BF0000002083DE1B4380B584B0C5
:1017E00000AF78600023FB607B681B689B6803F098
:1017F0000103012B2ED17B681B689A687B681B68EC
:1018000022F001029A60FFF729FCF8601BE0FFF765
:1018100025FC0246FB68D31A022B14D97B681B688F
:101820009B6803F00103012B0DD17B689B6A43F099
:1018300010027B689A627B68DB6A43F001027B6876
:10184000DA62012307E07B681B689B6803F00103F1
:10185000012BDCD0002318461037BD4680BD80B474
:1018600083B000AF786000BF0C37BD4680BC7047C6
:1018700080B584B000AF78607B68002B01D1012374
:10188000EDE07B6893F82030DBB2002B02D1786862
:10189000FFF78CFA7B681B681A687B681B6842F04C
:1018A00001021A60FFF7DAFBF86012E0FFF7D6FBDF
:1018B0000246FB68D31A0A2B0BD97B685B6A43F498
:1018C00000327B685A627B68052283F8202001235E
:1018D000C5E07B681B685B6803F00103002BE5D063
:1018E0007B681B681A687B681B6822F002021A601A
:1018F000FFF7B4FBF86012E0FFF7B0FB0246FB68AD
:10190000D31A0A2B0BD97B685B6A43F400327B68DD
:101910005A627B68052283F8202001239FE07B68C0
:101920001B685B6803F00203002BE5D17B681B7E1C
:10193000012B08D17B681B681A687B681B6842F022
:1019400080021A6007E07B681B681A687B681B6866
:1019500022F080021A607B685B7E012B08D17B68D5
:101960001B681A687B681B6842F040021A6007E037
:101970007B681B681A687B681B6822F040021A604B
:101980007B689B7E012B08D17B681B681A687B688B
:101990001B6842F020021A6007E07B681B681A6827
:1019A0007B681B6822F020021A607B68DB7E012BBB
:1019B00008D17B681B681A687B681B6822F01002DC
:1019C0001A6007E07B681B681A687B681B6842F036
:1019D00010021A607B681B7F012B08D17B681B6893
:1019E0001A687B681B6842F008021A6007E07B688F
:1019F0001B681A687B681B6822F008021A607B6803
:101A00005B7F012B08D17B681B681A687B681B68A9
:101A100042F004021A6007E07B681B681A687B6862
:101A20001B6822F004021A607B689A687B68DB6896
:101A30001A437B681B691A437B685B6942EA0301AE
:101A40007B685B685A1E7B681B680A43DA617B68A7
:101A500000225A627B68012283F820200023184666
:101A60001037BD4680BD80B487B000AF7860396064
:101A70007B681B687B617B6893F82030FB74FB7C80
:101A8000012B03D0FB7C022B40F0AA807B69D3F8AA
:101A9000003243F001027B69C3F800223B685B69B6
:101AA00003F01F03012202FA03F3FB607B69D3F802
:101AB0001C22FB68DB431A407B69C3F81C223B688D
:101AC000DB69002B23D17B69D3F80C22FB68DB4355
:101AD0001A407B69C3F80C223B68DB6819043B6839
:101AE0005B689BB23A68526919437B69483243F894
:101AF00032103B689B6819043B681B689AB23B68CC
:101B00005B690A4379694833DB000B445A603B68E0
:101B1000DB69012B22D17B69D3F80C22FB681A43C5
:101B20007B69C3F80C223B681B6819043B685B683F
:101B30009BB23A68526919437B69483243F83210C4
:101B40003B689B6819043B68DB689AB23B685B6939
:101B50000A4379694833DB000B445A603B689B6950
:101B6000002B09D17B69D3F80422FB68DB431A40C0
:101B70007B69C3F8042207E07B69D3F80422FB6881
:101B80001A437B69C3F804223B681B69002B09D107
:101B90007B69D3F81422FB68DB431A407B69C3F8E6
:101BA000142207E07B69D3F81422FB681A437B698F
:101BB000C3F814223B681B6A012B07D17B69D3F859
:101BC0001C22FB681A437B69C3F81C227B69D3F88B
:101BD000003223F001027B69C3F80022002306E0F3
:101BE0007B685B6A43F480227B685A620123184653
:101BF0001C37BD4680BC704780B584B000AF7860AC
:101C00007B6893F82030DBB2012B2ED17B68022257
:101C100083F820207B681B681A687B681B6822F0A9
:101C200001021A60FFF71AFAF86012E0FFF716FADD
:101C30000246FB68D31A0A2B0BD97B685B6A43F414
:101C400000327B685A627B68052283F820200123DA
:101C500012E07B681B685B6803F00103002BE5D191
:101C60007B6800225A62002306E07B685B6A43F4CB
:101C700000227B685A62012318461037BD4680BD9A
:101C800080B489B000AFF860B9607A603B60FB68EF
:101C900093F82030FB77FB681B689B68BB61FB7F78
:101CA000012B03D0FB7F022B40F0AD80BB6903F01A
:101CB0008063002B0AD1BB6903F00063002B05D1C0
:101CC000BB6903F08053002B00F09580BB691B0EAD
:101CD00003F003037B6101227B699A403B681A6031
:101CE000BB689B68002B0DD1BB681B685A05BB689D
:101CF000DB68F96809681A437B6918331B010B44D8
:101D00001A600FE0BB685B68DA00BB689B681A4327
:101D1000BB68DB68F96809681A437B6918331B01E3
:101D20000B441A60FB681968BB681A697B69183331
:101D30001B010B4404331A60BB681B7D012B11D1BE
:101D4000FB681A687B6918331B01134404331B6852
:101D5000FA68116843F480727B6918331B010B44E5
:101D600004331A607B6807331B781A067B680633D6
:101D70001B781B041A437B6805331B781B02134333
:101D80007A68043212781046FA68116843EA000251
:101D90007B691B010B4403F5C6731A607B68033330
:101DA0001B781A067B6802331B781B041A437B6876
:101DB00001331B781B0213437A6812781046FA68C5
:101DC000116843EA00027B691B010B4403F5C473ED
:101DD0001A60FB681A687B6918331B0113441B687F
:101DE000FA68116843F001027B6918331B010B4448
:101DF0001A6000230EE0FB685B6A43F40012FB6884
:101E00005A62012306E0FB685B6A43F48022FB68A8
:101E10005A62012318462437BD4680BC704780B4FF
:101E200085B000AF786039607B6893F82030FB7331
:101E3000FB7B012B02D0FB7B022B09D17B681B684B
:101E400059697B681B683A680A435A61002306E0B7
:101E50007B685B6A43F480227B685A6201231846E0
:101E60001437BD4680BC704780B485B000AF786041
:101E70007B6803F00703FB600C4BDB68BB60BA6850
:101E80004FF6FF031340BB60FB681A02BB681343A5
:101E900043F0BF6343F40033BB60044ABB68D360C4
:101EA00000BF1437BD4680BC704700BF00ED00E0A6
:101EB00080B400AF044BDB681B0A03F0070318462D
:101EC000BD4680BC704700BF00ED00E080B483B029
:101ED00000AF0346FB7197F90730002B0BDBFB7952
:101EE00003F01F02064997F907305B09012000FA49
:101EF00002F241F8232000BF0C37BD4680BC70477A
:101F000000E100E080B483B000AF03463960FB71AC
:101F100097F90730002B0ADB3B68DAB20C4997F9D6
:101F200007301201D2B20B4483F800230AE03B6869
:101F3000DAB20849FB7903F00F03043B1201D2B275
:101F40000B441A7600BF0C37BD4680BC704700BFFB
:101F500000E100E000ED00E080B489B000AFF8607F
:101F6000B9607A60FB6803F00703FB61FB69C3F1AA
:101F70000703042B28BF0423BB61FB690433062B32
:101F800002D9FB69033B00E000237B614FF0FF3285
:101F9000BB6902FA03F3DA43BB681A407B699A40D3
:101FA0004FF0FF317B6901FA03F3D9437B680B40A3
:101FB000134318462437BD4680BC704780B582B0B5
:101FC00000AF78607B68013BB3F1807F01D30123D0
:101FD0000FE00A4A7B68013B53600F214FF0FF304E
:101FE000FFF790FF054B00229A60044B07221A600E
:101FF000002318460837BD4680BD00BF10E000E052
:1020000080B582B000AF78607868FFF72DFF00BF21
:102010000837BD4680BD80B586B000AF0346B960C5
:102020007A60FB7300237B61FFF742FF78617A6877
:10203000B9687869FFF790FF024697F90F301146AB
:102040001846FFF75FFF00BF1837BD4680BD80B55B
:1020500082B000AF0346FB7197F907301846FFF7CF
:1020600035FF00BF0837BD4680BD80B582B000AFE8
:1020700078607868FFF7A2FF034618460837BD4628
:1020800080BD000080B48BB000AF78603960002361
:102090007B6200233B6269E101227B6A02FA03F35F
:1020A000FB613B681B68FA691340BB61BA69FB6955
:1020B0009A4240F058813B685B689A4A93425ED0EE
:1020C000984A934275D8984A934258D0964A934278
:1020D0006FD8964A934252D0944A934269D8944A10
:1020E00093424CD0924A934263D8924A934246D04C
:1020F000904A93425DD8122B2AD8122B59D801A2AC
:1021000052F823F07F210008592100086B210008B4
:10211000AD210008B3210008B3210008B321000855
:10212000B3210008B3210008B3210008B32100083F
:10213000B3210008B3210008B3210008B32100082F
:10214000B3210008B32100086121000875210008AF
:10215000794A934213D02CE03B68DB683B6229E06C
:102160003B68DB6804333B6224E03B68DB68083390
:102170003B621FE03B68DB680C333B621AE03B6864
:102180009B68002B02D104233B6213E03B689B68F1
:10219000012B05D108233B627B68FA691A6109E0CB
:1021A00008233B627B68FA695A6103E000233B62C3
:1021B00000E000BFBB69FF2B01D87B6801E07B68B2
:1021C00004337B61BB69FF2B02D87B6A9B0002E072
:1021D0007B6A083B9B003B617B691A680F213B6966
:1021E00001FA03F3DB431A40396A3B6901FA03F34E
:1021F0001A437B691A603B685B6803F08053002BCD
:1022000000F0B1804D4B9B694C4A43F00103936150
:102210004A4B9B6903F00103BB60BB68484A7B6A79
:102220009B08023352F82330FB607B6A03F0030300
:102230009B000F2202FA03F3DB43FA681340FB60B2
:102240007B68404A934213D07B683F4A93420DD04B
:102250007B683E4A934207D07B683D4A934201D156
:10226000032306E0042304E0022302E0012300E04C
:1022700000237A6A02F0030292009340FA68134343
:10228000FB602F497B6A9B080233FA6841F82320E0
:102290003B685B6803F48013002B06D02D4B9A68D3
:1022A0002C49BB6913438B6006E02A4B9A68BB69D3
:1022B000DB43284913408B603B685B6803F40013E1
:1022C000002B06D0234BDA682249BB691343CB604D
:1022D00006E0204BDA68BB69DB431E491340CB6044
:1022E0003B685B6803F40033002B06D0194B5A6837
:1022F0001849BB6913434B6006E0164B5A68BB692B
:10230000DB43144913404B603B685B6803F4803344
:10231000002B21D00F4B1A680E49BB6913430B6089
:1023200021E000BF00003210000031100000221038
:1023300000002110000012100000111000100240D7
:102340000000014000080140000C01400010014065
:1023500000140140000401400B4B1A68BB69DB43C9
:10236000094913400B607B6A01337B623B681A6842
:102370007B6A22FA03F3002B7FF48EAE00BF00BF0E
:102380002C37BD4680BC70470004014080B485B046
:1023900000AF78600B467B807B689A687B8813402F
:1023A000002B02D00123FB7301E00023FB73FB7BB6
:1023B00018461437BD4680BC7047000080B586B013
:1023C00000AF78607B68002B01D1012372E27B684B
:1023D0001B6803F00103002B00F08780924B5B68C1
:1023E00003F00C03042B0CD08F4B5B6803F00C0341
:1023F000082B12D18C4B5B6803F48033B3F5803F1C
:102400000BD1894B1B6803F40033002B6CD07B6825
:102410005B68002B68D101234CE27B685B68B3F5F5
:10242000803F06D1804B1B687F4A43F480331360A2
:102430002EE07B685B68002B0CD17B4B1B687A4AD3
:1024400023F480331360784B1B68774A23F480238E
:1024500013601DE07B685B68B3F5A02F0CD1724B55
:102460001B68714A43F4802313606F4B1B686E4AEC
:1024700043F4803313600BE06B4B1B686A4A23F410
:1024800080331360684B1B68674A23F48023136012
:102490007B685B68002B13D0FEF7E0FD386108E035
:1024A000FEF7DCFD02463B69D31A642B01D90323F6
:1024B00000E25D4B1B6803F40033002BF0D014E006
:1024C000FEF7CCFD386108E0FEF7C8FD02463B6927
:1024D000D31A642B01D90323ECE1534B1B6803F49B
:1024E0000033002BF0D100E000BF7B681B6803F0D5
:1024F0000203002B63D04C4B5B6803F00C03002BF2
:102500000BD0494B5B6803F00C03082B1CD1464BE6
:102510005B6803F48033002B16D1434B1B6803F038
:102520000203002B05D07B681B69012B01D001231E
:10253000C0E13D4B1B6823F0F8027B685B69DB0060
:10254000394913430B603AE07B681B69002B20D0AC
:10255000364B01221A60FEF781FD386108E0FEF774
:102560007DFD02463B69D31A022B01D90323A1E169
:102570002D4B1B6803F00203002BF0D02A4B1B6885
:1025800023F0F8027B685B69DB00274913430B608B
:1025900015E0264B00221A60FEF760FD386108E066
:1025A000FEF75CFD02463B69D31A022B01D90323D7
:1025B00080E11D4B1B6803F00203002BF0D17B6808
:1025C0001B6803F00803002B3AD07B689B69002B43
:1025D00019D0174B01221A60FEF740FD386108E060
:1025E000FEF73CFD02463B69D31A022B01D90323B7
:1025F00060E10D4B5B6A03F00203002BF0D0012079
:1026000000F09CFA1CE00A4B00221A60FEF726FD3F
:1026100038610FE0FEF722FD02463B69D31A022B18
:1026200008D9032346E100BF0010024000004242E7
:1026300080044242924B5B6A03F00203002BE9D113
:102640007B681B6803F00403002B00F0A6800023C6
:10265000FB758B4BDB6903F08053002B0DD1884B4E
:10266000DB69874A43F08053D361854BDB6903F014
:102670008053BB60BB680123FB75824B1B6803F46E
:102680008073002B18D17F4B1B687E4A43F4807304
:102690001360FEF7E3FC386108E0FEF7DFFC02465A
:1026A0003B69D31A642B01D9032303E1754B1B68E3
:1026B00003F48073002BF0D07B68DB68012B06D11C
:1026C0006F4B1B6A6E4A43F0010313622DE07B6877
:1026D000DB68002B0CD16A4B1B6A694A23F00103AB
:1026E0001362674B1B6A664A23F0040313621CE003
:1026F0007B68DB68052B0CD1614B1B6A604A43F099
:10270000040313625E4B1B6A5D4A43F001031362CC
:102710000BE05B4B1B6A5A4A23F001031362584BD0
:102720001B6A574A23F0040313627B68DB68002BA3
:1027300015D0FEF793FC38610AE0FEF78FFC0246E5
:102740003B69D31A41F28832934201D90323B1E0A5
:102750004B4B1B6A03F00203002BEED014E0FEF794
:102760007DFC38610AE0FEF779FC02463B69D31A2A
:1027700041F28832934201D903239BE0404B1B6A0C
:1027800003F00203002BEED1FB7D012B05D13C4B66
:10279000DB693B4A23F08053D3617B68DB69002B04
:1027A00000F08780364B5B6803F00C03082B61D088
:1027B0007B68DB69022B46D1334B00221A60FEF79F
:1027C0004DFC386108E0FEF749FC02463B69D31A2C
:1027D000022B01D903236DE0294B1B6803F0007322
:1027E000002BF0D17B681B6AB3F5803F08D1244BE6
:1027F0005B6823F400327B689B68214913434B607C
:102800001F4B5B6823F474127B68196A7B685B6AF0
:102810000B431B4913434B601B4B01221A60FEF70D
:102820001DFC386108E0FEF719FC02463B69D31A2B
:10283000022B01D903233DE0114B1B6803F0007309
:10284000002BF0D035E0104B00221A60FEF706FC9A
:10285000386108E0FEF702FC02463B69D31A022BFE
:1028600001D9032326E0064B1B6803F00073002BFD
:10287000F0D11EE07B68DB69012B07D1012319E051
:102880000010024000700040600042420B4B5B6849
:10289000FB60FB6803F480327B681B6A9A4206D1B6
:1028A000FB6803F470127B685B6A9A4201D00123D3
:1028B00000E0002318461837BD4680BD00100240D6
:1028C00080B584B000AF786039607B68002B01D19F
:1028D0000123D0E06A4B1B6803F007033A689A4271
:1028E00010D9674B1B6823F0070265493B68134307
:1028F0000B60634B1B6803F007033A689A4201D0F0
:102900000123B8E07B681B6803F00203002B20D092
:102910007B681B6803F00403002B05D0594B5B68F0
:10292000584A43F4E06353607B681B6803F0080374
:10293000002B05D0534B5B68524A43F460535360FD
:10294000504B5B6823F0F0027B689B684D49134352
:102950004B607B681B6803F00103002B40D07B6851
:102960005B68012B07D1474B1B6803F40033002B36
:1029700015D101237FE07B685B68022B07D1414BB7
:102980001B6803F00073002B09D1012373E03D4B5A
:102990001B6803F00203002B01D101236BE0394BCC
:1029A0005B6823F003027B685B68364913434B6026
:1029B000FEF754FBF8600AE0FEF750FB0246FB68A6
:1029C000D31A41F28832934201D9032353E02D4BAD
:1029D0005B6803F00C027B685B689B009A42EBD15A
:1029E000274B1B6803F007033A689A4210D2244B26
:1029F0001B6823F0070222493B6813430B60204BFE
:102A00001B6803F007033A689A4201D0012332E0C1
:102A10007B681B6803F00403002B08D0194B5B682C
:102A200023F4E0627B68DB68164913434B607B68E4
:102A30001B6803F00803002B09D0124B5B6823F4DA
:102A400060527B681B69DB000E4913434B6000F04A
:102A500021F802460B4B5B681B0903F00F030A4980
:102A6000CB5C22FA03F3094A1360094B1B68184632
:102A7000FEF7B2FA002318461037BD4680BD00BFEE
:102A800000200240001002405035000800000020E5
:102A90000400002080B487B000AF0023FB60002357
:102AA000BB6000237B6100237B6000233B611E4BE6
:102AB0005B68FB60FB6803F00C03042B02D0082B5F
:102AC00003D027E0194B3B6127E0FB689B0C03F028
:102AD0000F03174AD35C7B60FB6803F48033002B41
:102AE00010D0114B5B685B0C03F00103114AD35CFF
:102AF000BB607B680D4A03FB02F2BB68B2FBF3F3D9
:102B00007B6104E07B680C4A02FB03F37B617B6919
:102B10003B6102E0054B3B6100BF3B6918461C3737
:102B2000BD4680BC704700BF0010024000127A0012
:102B3000603500087035000800093D0080B485B09C
:102B400000AF78600A4B1B680A4AA2FB03235B0AAA
:102B50007A6802FB03F3FB6000BFFB685A1EFA6051
:102B6000002BF9D100BF00BF1437BD4680BC7047B1
:102B700000000020D34D621080B586B000AF7860B1
:102B800000233B610023FB607B681B6803F00103AB
:102B9000002B7DD00023FB754F4BDB6903F0805386
:102BA000002B0DD14C4BDB694B4A43F08053D36172
:102BB000494BDB6903F08053BB60BB680123FB75A5
:102BC000464B1B6803F48073002B18D1434B1B68E2
:102BD000424A43F480731360FEF740FA386108E01C
:102BE000FEF73CFA02463B69D31A642B01D9032352
:102BF0006DE03A4B1B6803F48073002BF0D0364B2A
:102C00001B6A03F44073FB60FB68002B2ED07B68CB
:102C10005B6803F44073FA689A4227D02E4B1B6A14
:102C200023F44073FB602E4B01221A602C4B0022D0
:102C30001A60294AFB681362FB6803F00103002B4A
:102C400014D0FEF70BFA38610AE0FEF707FA0246E5
:102C50003B69D31A41F28832934201D9032336E00B
:102C60001D4B1B6A03F00203002BEED01A4B1B6AAC
:102C700023F440727B685B68174913430B62FB7D4A
:102C8000012B05D1144BDB69134A23F08053D36128
:102C90007B681B6803F00203002B08D00E4B5B68B7
:102CA00023F440427B689B680B4913434B607B686D
:102CB0001B6803F01003002B08D0074B5B6823F45C
:102CC00080027B68DB68044913434B60002318468D
:102CD0001837BD4680BD00BF0010024000700040A4
:102CE0004004424280B582B000AF78607B68002B20
:102CF00001D1012341E07B6893F83D30DBB2002B2A
:102D000006D17B68002283F83C207868FEF79AF8A9
:102D10007B68022283F83D207B681A687B68043355
:102D20001946104600F074FA7B68012283F84620A9
:102D30007B68012283F83E207B68012283F83F20D4
:102D40007B68012283F840207B68012283F84120C0
:102D50007B68012283F842207B68012283F84320AC
:102D60007B68012283F844207B68012283F8452098
:102D70007B68012283F83D20002318460837BD46B2
:102D800080BD000080B485B000AF78607B6893F8A8
:102D90003D30DBB2012B01D001233AE07B680222F7
:102DA00083F83D207B681B68DA687B681B6842F00B
:102DB0000102DA607B681B68184A93420ED07B6878
:102DC0001B68B3F1804F09D07B681B68144A93429B
:102DD00004D07B681B68134A934211D17B681B683F
:102DE0009B6803F00703FB60FB68062B10D07B6831
:102DF0001B681A687B681B6842F001021A6007E0D2
:102E00007B681B681A687B681B6842F001021A60C5
:102E1000002318461437BD4680BC7047002C014083
:102E2000000400400008004080B582B000AF786028
:102E30007B681B681B6903F00203022B22D17B68AD
:102E40001B68DB6803F00203022B1BD17B681B6845
:102E50006FF002021A617B6801221A777B681B6897
:102E60009B6903F00303002B03D0786800F0B4F9EA
:102E700005E0786800F0A7F9786800F0B6F97B689B
:102E800000221A777B681B681B6903F00403042B7C
:102E900022D17B681B68DB6803F00403042B1BD181
:102EA0007B681B686FF004021A617B6802221A7744
:102EB0007B681B689B6903F44073002B03D0786820
:102EC00000F08AF905E0786800F07DF9786800F094
:102ED0008CF97B6800221A777B681B681B6903F0FA
:102EE0000803082B22D17B681B68DB6803F008030A
:102EF000082B1BD17B681B686FF008021A617B6886
:102F000004221A777B681B68DB6903F00303002B3C
:102F100003D0786800F060F905E0786800F053F9B4
:102F2000786800F062F97B6800221A777B681B687A
:102F30001B6903F01003102B22D17B681B68DB6830
:102F400003F01003102B1BD17B681B686FF010027D
:102F50001A617B6808221A777B681B68DB6903F4B7
:102F60004073002B03D0786800F036F905E07868EC
:102F700000F029F9786800F038F97B6800221A77A8
:102F80007B681B681B6903F00103012B0ED17B6872
:102F90001B68DB6803F00103012B07D17B681B680A
:102FA0006FF001021A617868FDF7E4FD7B681B6829
:102FB0001B6903F08003802B0ED17B681B68DB68E4
:102FC00003F08003802B07D17B681B686FF08002C1
:102FD0001A61786800F07BFA7B681B681B6903F054
:102FE0004003402B0ED17B681B68DB6803F0400375
:102FF000402B07D17B681B686FF040021A6178682C
:1030000000F0FCF87B681B681B6903F02003202B91
:103010000ED17B681B68DB6803F02003202B07D1EF
:103020007B681B686FF020021A61786800F046FA2E
:1030300000BF0837BD4680BD80B584B000AF786062
:1030400039600023FB737B6893F83C30012B01D17E
:103050000223B4E07B68012283F83C207B680222D3
:1030600083F83D207B681B689B68BB60BB6823F0CE
:103070007703BB60BB6823F47F43BB607B681B683E
:10308000BA689A603B681B68B3F5005F3ED0B3F541
:10309000005F00F28780B3F5805F00F08680B3F5B3
:1030A000805F7FD8702B1AD0702B7BD8602B50D0CC
:1030B000602B77D8502B3CD0502B73D8402B58D056
:1030C000402B6FD8302B64D0302B6BD8202B60D0A6
:1030D000202B67D8002B5CD0102B5AD062E07B6885
:1030E00018683B6899683B685A683B68DB6800F081
:1030F00068F97B681B689B68BB60BB6843F077031B
:10310000BB607B681B68BA689A604FE07B68186890
:103110003B6899683B685A683B68DB6800F051F986
:103120007B681B689A687B681B6842F480429A60DF
:103130003CE07B6818683B6859683B68DB681A4666
:1031400000F0C8F87B681B685021184600F01FF992
:103150002CE07B6818683B6859683B68DB681A4656
:1031600000F0E6F87B681B686021184600F00FF954
:103170001CE07B6818683B6859683B68DB681A4646
:1031800000F0A8F87B681B684021184600F0FFF8A3
:103190000CE07B681A683B681B681946104600F013
:1031A000F6F803E00123FB7300E000BF7B68012217
:1031B00083F83D207B68002283F83C20FB7B184687
:1031C0001037BD4680BD80B483B000AF786000BFCB
:1031D0000C37BD4680BC704780B483B000AF7860C8
:1031E00000BF0C37BD4680BC704780B483B000AFD1
:1031F000786000BF0C37BD4680BC704780B483B098
:1032000000AF786000BF0C37BD4680BC704700003F
:1032100080B485B000AF786039607B681B68FB6064
:103220007B68294A93420BD07B68B3F1804F07D06B
:103230007B68264A934203D07B68254A934208D193
:10324000FB6823F07003FB603B685B68FA6813431C
:10325000FB607B681C4A93420BD07B68B3F1804FC4
:1032600007D07B68194A934203D07B68184A93427F
:1032700008D1FB6823F44073FB603B68DB68FA68A5
:103280001343FB60FB6823F080023B685B691343D8
:10329000FB607B68FA681A603B689A687B68DA6250
:1032A0003B681A687B689A627B68074A934203D13D
:1032B0003B681A697B681A637B6801225A6100BF08
:1032C0001437BD4680BC7047002C0140000400400C
:1032D0000008004080B487B000AFF860B9607A6041
:1032E000FB681B6A7B61FB681B6A23F00102FB68B9
:1032F0001A62FB689B693B613B6923F0F0033B6109
:103300007B681B013A6913433B617B6923F00A0325
:103310007B617A69BB6813437B61FB683A699A6198
:10332000FB687A691A6200BF1C37BD4680BC7047D3
:1033300080B487B000AFF860B9607A60FB681B6A40
:103340007B61FB681B6A23F01002FB681A62FB6852
:103350009B693B613B6923F470433B617B681B03C2
:103360003A6913433B617B6923F0A0037B61BB682F
:103370001B017A6913437B61FB683A699A61FB68B8
:103380007A691A6200BF1C37BD4680BC704780B4A2
:1033900085B000AF786039607B689B68FB60FB6834
:1033A00023F07003FB603A68FB68134343F00703A4
:1033B000FB607B68FA689A6000BF1437BD4680BC2A
:1033C000704780B487B000AFF860B9607A603B6046
:1033D000FB689B687B617B6923F47F437B613B686F
:1033E0001A027B681A43BB6813437A6913437B61F3
:1033F000FB687A699A6000BF1C37BD4680BC704785
:1034000080B485B000AF786039607B6893F83C3059
:10341000012B01D1022346E07B68012283F83C2086
:103420007B68022283F83D207B681B685B68FB6039
:103430007B681B689B68BB60FB6823F07003FB60C4
:103440003B681B68FA681343FB607B681B68FA687B
:103450005A607B681B68164A93420ED07B681B68D3
:10346000B3F1804F09D07B681B68124A934204D0A5
:103470007B681B68104A93420CD1BB6823F0800321
:10348000BB603B685B68BA681343BB607B681B68C2
:10349000BA689A607B68012283F83D207B6800222D
:1034A00083F83C20002318461437BD4680BC704783
:1034B000002C0140000400400008004080B483B0AC
:1034C00000AF786000BF0C37BD4680BC704780B449
:1034D00083B000AF786000BF0C37BD4680BC70473A
:1034E00003460244934200D1704703F8011BF9E7F9
:1034F00070B500260C4D0D4C641BA410A64209D1DA
:1035000000F01AF800260A4D0A4C641BA410A642CB
:1035100005D170BD55F8043B98470136EEE755F8E4
:10352000043B98470136F2E774350008743500080B
:103530007435000878350008F8B500BFF8BC08BC41
:103540009E467047F8B500BFF8BC08BC9E46704761
:103550000000000000000000010203040607080943
:1035600002030405060708090A0B0C0D0E0F1010C4
:043570000102000054
:043574003501000815
:043578001101000835
:0C357C000024F40010000000010000001A
:0400000508000F617F
:00000001FF
