:020000040800F2
:100000000000022001160008851400088D14000865
:10001000951400089D140008A514000800000000B5
:10002000000000000000000000000000AD14000807
:10003000BB14000800000000C9140008D714000811
:1000400051160008511600085116000851160008F4
:1000500051160008511600085116000851160008E4
:1000600051160008511600085116000851160008D4
:1000700051160008511600085116000851160008C4
:10008000511600085116000851160008E91400081E
:10009000FD14000811150008251500085116000868
:1000A0005116000851160008511600085116000894
:1000B000391500085116000851160008511600089D
:1000C0005116000851160008511600085116000874
:1000D0005116000851160008511600085116000864
:1000E0006115000851160008511600085116000845
:1000F0005116000851160008511600085116000844
:100100005116000851160008511600085116000833
:100110005116000851160008511600085116000823
:100120005116000851160008511600085116000813
:100130005116000851160008511600085116000803
:100140005116000851160008511600084D150008F8
:1001500051160008511600085116000851160008E3
:1001600051160008511600085116000851160008D3
:100170005116000851160008511600080000000032
:08018000511600085116000899
:1001900010B5054C237833B9044B13B10448AFF3C1
:1001A00000800123237010BD7C00002000000000AF
:1001B000E8B7000808B5034B1BB103490348AFF388
:1001C000008008BD0000000080000020E8B70008A3
:1001D000034613F8012B002AFBD1181A0138704787
:1001E00001F0FF01102A2BDB10F0070F08D010F8E8
:1001F000013B013A8B422DD010F0070F42B3F6D1EC
:10020000F0B441EA012141EA014122F007047FF004
:1002100000070023F0E80256083C85EA010586EA5B
:10022000010685FA47F5A3FA87F586FA47F6A5FA97
:1002300087F68EB9EED1F0BC01F0FF0102F00702A3
:1002400032B110F8013B013A83EA010313B1F8D14E
:100250000020704701387047002D06BF354603382F
:10026000073815F0010F07D1013015F4807F02BF68
:10027000013015F4C03F0130F0BC0138704700BFB9
:1002800053B94AB9002908BF00281CBF4FF0FF31FD
:100290004FF0FF3000F06AB9ADF1080C6DE904CE03
:1002A00000F006F8DDF804E0DDE9022304B0704751
:1002B0002DE9F047089D0C46002B4ED194468C4505
:1002C0008646B2FA82F262D94AB1C2F12003914065
:1002D00020FA03F30CFA02FC194300FA02FE4FEA7B
:1002E0001C471FFA8CF6B1FBF7F44FEA1E4307FBDD
:1002F000141143EA014304FB06F199420AD91CEBAD
:10030000030304F1FF3080F01281994240F20F8123
:10031000023C6344591A1FFA8EF3B1FBF7F007FB56
:10032000101143EA014300FB06F69E420AD91CEB7A
:10033000030300F1FF3180F0FC809E4240F2F9801F
:10034000634402389B1B40EA044000211DB1D340A6
:100350000022C5E90032BDE8F0878B4205D90DB116
:10036000C5E9000100210846F5E7B3FA83F1002949
:1003700046D1A34202D39042C0F0F080861A64EBCB
:1003800003030120002DE6D0C5E90063E3E7002A5E
:1003900040F09080A1EB0C044FEA1C481FFA8CF748
:1003A0000121B4FBF8F64FEA1E4308FB164443EA6A
:1003B000044307FB06F0984208D91CEB030306F13F
:1003C000FF3402D2984200F2CD8026461C1A1FFA52
:1003D0008EF3B4FBF8F008FB104443EA044300FB3F
:1003E00007F79F4208D91CEB030300F1FF3402D248
:1003F0009F4200F2B0802046DB1B40EA0640A5E7A2
:10040000C1F120068B4022FA06F71F4320FA06FCB2
:1004100004FA01F343EA0C03F44000FA01F8380C43
:100420004FEA1349B4FBF0FE1FFA87FC00FB1E44A1
:1004300049EA04440EFB0CF9A14502FA01F20AD97B
:100440003C190EF1FF3A80F08480A14540F2818092
:10045000AEF1020E3C44A4EB09041FFA83F9B4FB8D
:10046000F0F300FB134449EA044403FB0CFCA445ED
:1004700007D93C1903F1FF3067D2A44565D9023B87
:100480003C4443EA0E40A0FB0293A4EB0C049C42C4
:10049000CE469C4651D34ED055B1B8EB0E0364EB1B
:1004A0000C0404FA06F6CB401E43CC40C5E90064B8
:1004B000002150E7C2F1200320FA03F10CFA02FCFC
:1004C00024FA03F394400C434FEA1C4800FA02FE5E
:1004D0001FFA8CF7B3FBF8F008FB1031230C43EA4A
:1004E000014300FB07F1994208D91CEB030300F11B
:1004F000FF362CD299422AD9023863445B1AA4B23F
:10050000B3FBF8F108FB113344EA034401FB07F3A2
:10051000A34208D91CEB040401F1FF3613D2A34215
:1005200011D902396444E41A41EA004139E704462A
:10053000F0E6084606E7C845AED2B9EB020E63EB1B
:10054000070C0138A8E73146EDE7034699E7304646
:10055000D4E7D6467FE7634402384DE70646234694
:1005600008460FE7023E634430E700BF704700BF14
:1005700080B500AF01F06EF800F04CF800F0B8F96B
:100580000AF078F900F0B0F800F088F900F0E2F82D
:1005900000F00EF900F069FD00F0D8FA40F20341D6
:1005A000164801F02FFC0346002B01D000F0B0FDEF
:1005B000124801F0C1FA0346002B01D000F0A8FD5B
:1005C0000F4910480AF01EFD0E48FFF701FE0346D2
:1005D0009AB24FF0FF330B490B4806F0A1FB0AF02B
:1005E0006FF90A4B1B68184600F072FC084B1B7829
:1005F000184600F093FC00BFF1E700BF9800002010
:1006000000B80008C80100205C010020C0010020E3
:10061000C401002080B594B000AF07F12003302260
:10062000002118460AF00EFD07F10C0300221A60A3
:100630005A609A60DA601A610023BB60284B1B6C19
:10064000274A43F080531364254B1B6C03F08053FF
:10065000BB60BB6800237B60224B1B68214A43F4CC
:10066000804313601F4B1B6803F480437B607B68EF
:1006700001233B624FF480337B620223BB634FF460
:100680008003FB6308233B644FF4A8737B6402235D
:10069000BB640723FB6407F12003184604F090FEB7
:1006A0000346002B01D000F033FD0F23FB60022333
:1006B0003B6100237B614FF4C053BB614FF4805317
:1006C000FB6107F10C030521184605F0F1F803461C
:1006D000002B01D000F01CFD00BF5037BD4680BD8F
:1006E000003802400070004080B500AF174B184A38
:1006F0001A60164B06225A60144B00229A60134B64
:100700000022DA60114B4FF420221A610F4B4FF494
:1007100080125A610D4B00221A760C4B00225A7639
:100720000A4B00229A76094B0022DA76074B002208
:100730001A77064B00225A77044801F021F8034645
:10074000002B01D000F0E4FC00BF80BD9800002029
:100750000064004080B500AF124B134A1A60114B81
:10076000124A5A600F4B00229A600E4B0022DA6048
:100770000C4B4FF480421A610A4B00225A61094B1C
:1007800000229A61074B0022DA61064B00221A62AE
:10079000044804F077F90346002B01D000F0B8FCC0
:1007A00000BF80BDC000002000540040A0860100B2
:1007B00080B58EB000AF07F1280300221A605A609E
:1007C0009A60DA6007F1200300221A605A603B1D2C
:1007D00000221A605A609A60DA601A615A619A615E
:1007E0002D4B4FF080421A602B4B53225A602A4BFC
:1007F00000229A60284B42F20F72DA60264B0022E8
:100800001A61254B00229A61234805F071FA0346CC
:10081000002B01D000F07CFC4FF48053BB6207F149
:10082000280319461C4805F085FD0346002B01D01E
:1008300000F06EFC184805F0AAFA0346002B01D020
:1008400000F066FC00233B6200237B6207F120037B
:100850001946114806F084F90346002B01D000F038
:1008600057FC60237B600023BB600023FB600023F8
:100870007B613B1D04221946074805F099FC03469D
:10088000002B01D000F044FC034800F07BFD00BFCA
:100890003837BD4680BD00BF1401002080B500AFD1
:1008A000114B124A1A60104B4FF4E1325A600E4B52
:1008B00000229A600C4B0022DA600B4B00221A6176
:1008C000094B0C225A61084B00229A61064B002208
:1008D000DA61054806F0D4F90346002B01D000F098
:1008E00017FC00BF80BD00BF5C0100200044004039
:1008F00080B58CB000AF07F11C0300221A605A606B
:100900009A60DA601A610023BB618A4B1B6B894ACB
:1009100043F010031363874B1B6B03F01003BB61A1
:10092000BB6900237B61834B1B6B824A43F004034A
:100930001363804B1B6B03F004037B617B69002313
:100940003B617C4B1B6B7B4A43F080031363794B09
:100950001B6B03F080033B613B690023FB60754B1D
:100960001B6B744A43F001031363724B1B6B03F060
:100970000103FB60FB680023BB606E4B1B6B6D4A81
:1009800043F0020313636B4B1B6B03F00203BB606A
:10099000BB6800237B60674B1B6B664A43F0080310
:1009A0001363644B1B6B03F008037B607B680022BE
:1009B0000821614801F00EFF012201215F4801F08A
:1009C00009FF00224FF610015D4801F003FF0823E4
:1009D000FB6101233B6200237B620023BB6207F1C2
:1009E0001C031946544801F059FD0123FB61012302
:1009F0003B6200237B620023BB6207F11C031946A4
:100A00004E4801F04BFD0823FB6102233B620023AB
:100A10007B620023BB620523FB6207F11C031946BE
:100A2000464801F03BFD0123FB614FF490133B620C
:100A300000237B6207F11C031946424801F02EFD9A
:100A40001023FB6102233B6200237B620023BB6215
:100A50000623FB6207F11C0319463A4801F01EFD0C
:100A6000E023FB6102233B6200237B620023BB6225
:100A70000523FB6207F11C031946324801F00EFD05
:100A80000423FB6100233B6200237B6207F11C030C
:100A900019462D4801F002FD4FF48063FB610223EB
:100AA0003B6200237B620023BB620523FB6207F1EC
:100AB0001C031946244801F0F1FC4FF61003FB61BA
:100AC00001233B6200237B620023BB6207F11C030E
:100AD00019461B4801F0E2FC4FF4A453FB610223CA
:100AE0003B6200237B620023BB620623FB6207F1AB
:100AF0001C031946114801F0D1FC2023FB6100239F
:100B00003B6200237B6207F11C0319460C4801F08D
:100B1000C5FC0223FB614FF490133B6200237B6210
:100B200007F11C031946044801F0B8FC00BF303738
:100B3000BD4680BD0038024000100240000802405F
:100B4000000C0240000002400004024080B58AB060
:100B500000AF01233B6200237B6100233B61002344
:100B60003B6000237B600023BB600023FB6000230D
:100B7000BB610123FB613B461946064800F0FCFEC1
:100B80000346002B01D000F0C3FA00BF2837BD4652
:100B900080BD00BF9800002080B590B000AF7860A5
:100BA00007F10C030A4918460AF02CFA07F10C0366
:100BB0001846FFF70DFB03469AB207F10C014FF000
:100BC000FF33044806F0ACF800BF4037BD4680BD97
:100BD0000CB800085C01002080B590B000AF7860D0
:100BE00007F10C030A4918460AF00CFA07F10C0346
:100BF0001846FFF7EDFA03469AB207F10C014FF0E1
:100C0000FF33044806F08CF800BF4037BD4680BD76
:100C100028B800085C01002080B590B000AF786073
:100C200007F10C030A4918460AF0ECF907F10C0326
:100C30001846FFF7CDFA03469AB207F10C014FF0C0
:100C4000FF33044806F06CF800BF4037BD4680BD56
:100C500044B800085C01002080B594B000AF786013
:100C600007F14003644A0021786800F0A9FF0346B9
:100C7000002B01D000F04CFA5F4B1B6840F2516230
:100C8000934233D15C4BDB68002B2FD197F8403077
:100C90001B021AB297F841301BB213431BB2A7F8DC
:100CA0004E30B7F84E30184600F0D2F8B7F84E2064
:100CB00007F10C03514918460AF0A4F907F10C0397
:100CC0001846FFF785FA03469AB207F10C014FF078
:100CD000FF334B4806F024F80021002000F0A6F96D
:100CE00007F10C03184600F0FDF981E0424B1B6848
:100CF00040F25262934237D13F4BDB68002B33D135
:100D000097F84030A7F84C30B7F84C30002B6ED035
:100D100007F10C033B4918460AF074F907F10C037C
:100D20001846FFF755FA03469AB207F10C014FF047
:100D3000FF33334805F0F4FF07F10C031846FFF7C3
:100D400047FA03469AB207F10C014FF0FF332C48E3
:100D500005F0E6FF0021012000F068F907F10C031F
:100D6000184600F0BFF942E0234B1B68B3F5CA6F89
:100D70003ED1214BDB68002B3AD197F840301B0263
:100D80001AB297F841301BB213431BB2A7F84A308E
:100D9000B7F84A30002B2BD0B7F84A2007F10C03E4
:100DA000194918460AF02EF907F10C031846FFF707
:100DB0000FFA03469AB207F10C014FF0FF331048C7
:100DC00005F0AEFF0021012000F030F907F10C031F
:100DD000184600F087F9B7F84A30282B03D90B4B97
:100DE00001221A7004E0094B00221A7000E000BFD3
:100DF00000BF5037BD4680BDA401002060B8000888
:100E00005C01002074B8000888B80008C401002004
:100E100080B590B000AF786007F10C030A4918461E
:100E20000AF0F0F807F10C031846FFF7D1F9034672
:100E30009AB207F10C014FF0FF33044805F070FF40
:100E400000BF4037BD4680BD9CB800085C01002053
:100E500080B483B000AF78607B68282B07D87B68AC
:100E60001E2B04D9194B4FF4FA721A6028E07B68E4
:100E70001E2B06D87B68142B03D9144BFA221A6058
:100E80001EE07B68142B06D87B680F2B03D90F4B11
:100E90007D221A6014E07B680F2B06D87B680A2B32
:100EA00003D90A4B32221A600AE07B680A2B03D866
:100EB000064B01221A6003E0044B00221A60FFE790
:100EC00000BF0C37BD465DF8047B7047C0010020B1
:100ED00080B582B000AF78607B68002B12D0012211
:100EE0004FF400610C4801F075FC786800F024FCB8
:100EF00000224FF40061084801F06CFC786800F0B3
:100F00001BFC05E000224FF40061034801F062FC85
:100F100000BF0837BD4680BD000C024080B582B0DE
:100F200000AF0346FB71FB79002B19D004210E485A
:100F300004F086FF0C4B1B68FA229A634FF4FA7098
:100F400000F0FAFB084B1B6840F2EE229A634FF464
:100F5000FA7000F0F1FB044B1B6840F2E2429A6326
:100F600000BF0837BD4680BD1401002080B586B0A3
:100F700002AF0346FB71FB7923F00F03FB73FB7990
:100F80001B01BB73FB7B43F00C03DBB23B72FB7BAF
:100F900043F00803DBB27B72BB7B43F00C03DBB294
:100FA000BB72BB7B43F00803DBB2FB7207F10802A4
:100FB0006423009304234E21034803F0A7FE00BFDF
:100FC0001037BD4680BD00BFC000002080B586B090
:100FD00002AF0346FB71FB7923F00F03FB73FB7930
:100FE0001B01BB73FB7B43F00D03DBB23B72FB7B4E
:100FF00043F00903DBB27B72BB7B43F00D03DBB232
:10100000BB72BB7B43F00903DBB2FB7207F1080242
:101010006423009304234E21034803F077FE00BFAE
:101020001037BD4680BD00BFC000002080B582B033
:1010300000AF786039607B68002B03D07B68012BA0
:1010400005D009E03B6843F080033B6004E03B6867
:1010500043F0C0033B6000BF3B68DBB21846FFF7BC
:1010600085FF00BF0837BD4680BD80B500AF322088
:1010700000F062FB3020FFF779FF052000F05CFBF9
:101080003020FFF773FF012000F056FB3020FFF700
:101090006DFF0A2000F050FB2020FFF767FF0A20B9
:1010A00000F04AFB2820FFF761FF012000F044FB1D
:1010B0000820FFF75BFF012000F03EFB0120FFF757
:1010C00055FF012000F038FB012000F035FB062021
:1010D000FFF74CFF012000F02FFB0C20FFF746FF2D
:1010E00000BF80BD80B582B000AF786006E07B684D
:1010F0005A1C7A601B781846FFF768FF7B681B78DC
:10110000002BF4D100BF00BF0837BD4680BD0000F2
:1011100080B58EB000AF3B1D0949184609F072FF3B
:101120003B1D1846FFF754F803469AB2391D4FF09D
:10113000FF33044805F0F4FD72B600BF00BFFDE7C1
:10114000C8B800085C01002080B582B000AF002361
:101150007B60104B5B6C0F4A43F4804353640D4B30
:101160005B6C03F480437B607B6800233B60094B2E
:101170001B6C084A43F080531364064B1B6C03F04E
:1011800080533B603B68072001F03AF900BF083705
:10119000BD4680BD0038024080B58AB000AF78609F
:1011A00007F1140300221A605A609A60DA601A612B
:1011B0007B681B68394A93426BD100233B61384BF3
:1011C0001B6C374A43F000731364354B1B6C03F000
:1011D00000733B613B690023FB60314B1B6B304A62
:1011E00043F0080313632E4B1B6B03F00803FB60F3
:1011F000FB6803237B610223BB610023FB610323A4
:101200003B6209237B6207F114031946254801F06C
:1012100045F900220021132001F0FDF8132001F010
:1012200016F900220021142001F0F5F8142001F035
:101230000EF900220021152001F0EDF8152001F033
:1012400006F900220021162001F0E5F8162001F031
:10125000FEF800220F21132001F0DDF800220F21FB
:10126000142001F0D8F800220F21152001F0D3F846
:1012700000220F21162001F0CEF8132001F0E7F82C
:10128000142001F0E4F8152001F0E1F8162001F037
:10129000DEF800BF2837BD4680BD00BF00640040B7
:1012A00000380240000C024080B58AB000AF786080
:1012B00007F1140300221A605A609A60DA601A611A
:1012C0007B681B68194A93422CD100233B61184B61
:1012D0001B6B174A43F002031363154B1B6B03F0A0
:1012E00002033B613B694FF440737B611223BB6196
:1012F0000023FB6103233B6204237B6207F1140399
:1013000019460C4801F0CAF80023FB60084B1B6C1F
:10131000074A43F400131364054B1B6C03F40013DA
:10132000FB60FB6800BF2837BD4680BD005400400D
:10133000003802400004024080B584B000AF7860FD
:101340007B681B68B3F1804F15D10023FB600C4B09
:101350001B6C0B4A43F001031364094B1B6C03F035
:101360000103FB60FB68002200211C2001F053F800
:101370001C2001F06CF800BF1037BD4680BD00BFD7
:101380000038024080B588B000AF786007F10C03E8
:1013900000221A605A609A60DA601A617B681B68E2
:1013A000B3F1804F1DD10023BB60104B1B6B0F4A64
:1013B00043F0010313630D4B1B6B03F00103BB6090
:1013C000BB680223FB6002233B6100237B61002397
:1013D000BB610123FB6107F10C031946044801F0CE
:1013E0005DF800BF2037BD4680BD00BF0038024019
:1013F0000000024080B58AB000AF786007F11403A6
:1014000000221A605A609A60DA601A617B681B6871
:10141000194A93422BD100233B61184B1B6C174A8E
:1014200043F400331364154B1B6C03F400333B612E
:101430003B690023FB60114B1B6B104A43F0010317
:1014400013630E4B1B6B03F00103FB60FB680C2363
:101450007B610223BB610023FB6103233B62072303
:101460007B6207F114031946054801F017F800BF25
:101470002837BD4680BD00BF004400400038024010
:101480000000024080B400AF00BFFDE780B400AFB1
:1014900000BFFDE780B400AF00BFFDE780B400AF40
:1014A00000BFFDE780B400AF00BFFDE780B400AF30
:1014B00000BFBD465DF8047B704780B400AF00BF3D
:1014C000BD465DF8047B704780B400AF00BFBD46E9
:1014D0005DF8047B704780B500AF00F00DF900F0B7
:1014E000D0FF00BF80BD000080B500AF024800F013
:1014F000AFFC00BF80BD00BF9800002080B500AFEA
:10150000024800F0A5FC00BF80BD00BF980000208D
:1015100080B500AF024800F09BFC00BF80BD00BF5B
:101520009800002080B500AF024800F091FC00BF99
:1015300080BD00BF9800002080B500AF024804F0D5
:1015400047FD00BF80BD00BF1401002080B500AF83
:10155000024801F05DFC00BF80BD00BFE005002037
:1015600080B500AF012001F04FF900BF80BD000041
:1015700080B586B000AF7860144A154BD31A7B61F2
:101580007B693B61134B1B68002B02D1114B124A44
:101590001A60104B1A687B6813443A699A4207D262
:1015A00009F068FD03460C221A604FF0FF3309E092
:1015B000084B1B68FB60074B1A687B681344054A9D
:1015C0001360FB6818461837BD4680BD0000022036
:1015D00000040000FC010020080B002080B400AFD4
:1015E000064BD3F88830054A43F47003C2F88830BC
:1015F00000BFBD465DF8047B704700BF00ED00E012
:10160000DFF834D0FFF7EAFF0C480D490D4A0023FC
:1016100002E0D458C4500433C4188C42F9D30A4AA7
:101620000A4C002301E013600432A242FBD309F00C
:1016300027FDFEF79DFF70470000022000000020FC
:101640007C00002038B900087C000020080B002036
:10165000FEE7000080B500AF0E4B1B680D4A43F457
:10166000007313600B4B1B680A4A43F480631360DA
:10167000084B1B68074A43F480731360032000F093
:10168000BFFE002000F008F8FFF75EFD00231846BB
:1016900080BD00BF003C024080B582B000AF7860E2
:1016A000124B1A68124B1B7819464FF47A73B3FB2E
:1016B000F1F3B2FBF3F3184600F0D7FE0346002B1C
:1016C00001D001230EE07B680F2B0AD80022796835
:1016D0004FF0FF3000F09FFE064A7B681360002346
:1016E00000E0012318460837BD4680BD00000020F9
:1016F000080000200400002080B400AF064B1B78D7
:101700001A46064B1B681344044A136000BFBD46CB
:101710005DF8047B704700BF080000200002002035
:1017200080B400AF034B1B681846BD465DF8047BD0
:10173000704700BF0002002080B584B000AF786021
:10174000FFF7EEFFB8607B68FB60FB68B3F1FF3F1B
:1017500005D00A4B1B781A46FB681344FB6000BF98
:10176000FFF7DEFF0246BB68D31AFA689A42F7D841
:1017700000BF00BF1037BD4680BD00BF080000207D
:1017800080B584B000AF78607B68002B01D1012365
:10179000EDE07B6893F82030DBB2002B02D1786853
:1017A000FFF7FAFC7B681B681A687B681B6842F0CD
:1017B00001021A60FFF7B4FFF86012E0FFF7B0FF14
:1017C0000246FB68D31A0A2B0BD97B685B6A43F489
:1017D00000327B685A627B68052283F8202001234F
:1017E000C5E07B681B685B6803F00103002BE5D054
:1017F0007B681B681A687B681B6822F002021A600B
:10180000FFF78EFFF86012E0FFF78AFF0246FB68E1
:10181000D31A0A2B0BD97B685B6A43F400327B68CE
:101820005A627B68052283F8202001239FE07B68B1
:101830001B685B6803F00203002BE5D17B681B7E0D
:10184000012B08D17B681B681A687B681B6842F013
:1018500080021A6007E07B681B681A687B681B6857
:1018600022F080021A607B685B7E012B08D17B68C6
:101870001B681A687B681B6842F040021A6007E028
:101880007B681B681A687B681B6822F040021A603C
:101890007B689B7E012B08D17B681B681A687B687C
:1018A0001B6842F020021A6007E07B681B681A6818
:1018B0007B681B6822F020021A607B68DB7E012BAC
:1018C00008D17B681B681A687B681B6822F01002CD
:1018D0001A6007E07B681B681A687B681B6842F027
:1018E00010021A607B681B7F012B08D17B681B6884
:1018F0001A687B681B6842F008021A6007E07B6880
:101900001B681A687B681B6822F008021A607B68F3
:101910005B7F012B08D17B681B681A687B681B689A
:1019200042F004021A6007E07B681B681A687B6853
:101930001B6822F004021A607B689A687B68DB6887
:101940001A437B681B691A437B685B6942EA03019F
:101950007B685B685A1E7B681B680A43DA617B6898
:1019600000225A627B68012283F820200023184657
:101970001037BD4680BD000080B487B000AF7860EE
:1019800039607B681B687B617B6893F82030FB744F
:10199000FB7C012B03D0FB7C022B40F0BE80654B0F
:1019A0007B617B69D3F8003243F001027B69C3F8A5
:1019B00000227B69D3F8003223F47C527B69C3F8A0
:1019C00000227B69D3F800223B685B6A1B021A4342
:1019D0007B69C3F800223B685B6903F01F030122A7
:1019E00002FA03F3FB607B69D3F81C22FB68DB433C
:1019F0001A407B69C3F81C223B68DB69002B23D1AA
:101A00007B69D3F80C22FB68DB431A407B69C3F87F
:101A10000C223B68DB6819043B685B689BB23A6840
:101A2000526919437B69483243F832103B689B681E
:101A300019043B681B689AB23B685B690A43796981
:101A40004833DB000B445A603B68DB69012B22D131
:101A50007B69D3F80C22FB681A437B69C3F80C221C
:101A60003B681B6819043B685B689BB23A68526923
:101A700019437B69483243F832103B689B6819046C
:101A80003B68DB689AB23B685B690A437969483313
:101A9000DB000B445A603B689B69002B09D17B69D2
:101AA000D3F80422FB68DB431A407B69C3F80422A5
:101AB00007E07B69D3F80422FB681A437B69C3F80B
:101AC00004223B681B69002B09D17B69D3F81422DF
:101AD000FB68DB431A407B69C3F8142207E07B698B
:101AE000D3F81422FB681A437B69C3F814223B68BD
:101AF0001B6A012B07D17B69D3F81C22FB681A43B0
:101B00007B69C3F81C227B69D3F8003223F0010201
:101B10007B69C3F80022002306E07B685B6A43F41C
:101B200080227B685A62012318461C37BD465DF847
:101B3000047B70470064004080B584B000AF7860DB
:101B40007B6893F82030DBB2012B2ED17B68022218
:101B500083F820207B681B681A687B681B6822F06A
:101B600001021A60FFF7DCFDF86012E0FFF7D8FD14
:101B70000246FB68D31A0A2B0BD97B685B6A43F4D5
:101B800000327B685A627B68052283F8202001239B
:101B900012E07B681B685B6803F00103002BE5D152
:101BA0007B6800225A62002306E07B685B6A43F48C
:101BB00000227B685A62012318461037BD4680BD5B
:101BC00080B487B000AFF860B9607A603B60FB68B2
:101BD00093F82030FB75FB7D012B03D0FB7D022B9E
:101BE00040F00381BB68002B0ED1FB681B68DB68EB
:101BF00003F00303002B16D1FB685B6A43F4001269
:101C0000FB685A620123F7E0FB681B681B6903F05D
:101C10000303002B07D1FB685B6A43F40012FB68E7
:101C20005A620123E8E0FB681A68BB681B331B019A
:101C300013441B6803F004027B689A607B689B680E
:101C4000002B0CD1FB681A68BB681B331B011344C3
:101C50001B685B0DC3F30A027B681A600BE0FB682C
:101C60001A68BB681B331B0113441B68DB0823F095
:101C700060427B685A60FB681A68BB681B331B01B3
:101C800013441B6803F002027B68DA60FB681A6881
:101C9000BB681B331B01134404331B6803F00803A8
:101CA000002B03D07B6808221A610BE0FB681A68DE
:101CB000BB681B331B01134404331B6803F00F0282
:101CC0007B681A61FB681A68BB681B331B011344ED
:101CD00004331B681B0ADAB27B689A61FB681A68D6
:101CE000BB681B331B01134404331B681B0C9AB2E3
:101CF0007B685A61FB681A68BB681B01134403F5D3
:101D0000DC731B68DAB23B681A70FB681A68BB6840
:101D10001B01134403F5DC731B681A0A3B6801338B
:101D2000D2B21A70FB681A68BB681B01134403F532
:101D3000DC731B681A0C3B680233D2B21A70FB6862
:101D40001A68BB681B01134403F5DC731B681A0E89
:101D50003B680333D2B21A70FB681A68BB681B0178
:101D6000134403F5DE731A683B680433D2B21A7069
:101D7000FB681A68BB681B01134403F5DE731B681C
:101D80001A0A3B680533D2B21A70FB681A68BB683E
:101D90001B01134403F5DE731B681A0C3B68063302
:101DA000D2B21A70FB681A68BB681B01134403F5B2
:101DB000DE731B681A0E3B680733D2B21A70BB6819
:101DC000002B08D1FB681B68DA68FB681B6842F0CF
:101DD0002002DA6007E0FB681B681A69FB681B6871
:101DE00042F020021A61002306E0FB685B6A43F4BC
:101DF0008022FB685A62012318461C37BD465DF8F5
:101E0000047B704780B485B000AF786039607B6830
:101E100093F82030FB73FB7B012B02D0FB7B022B62
:101E200009D17B681B6859697B681B683A680A435B
:101E30005A61002306E07B685B6A43F480227B687A
:101E40005A62012318461437BD465DF8047B70477B
:101E500080B58AB000AF786000237B627B681B6826
:101E60005B693B627B681B685B68FB617B681B6826
:101E70009B68BB617B681B68DB687B617B681B6858
:101E80001B693B617B681B689B69FB603B6A03F0D5
:101E90000103002B7CD0BB6903F00103002B23D08E
:101EA0007B681B6801229A60BB6903F00203002B68
:101EB00003D07868FEF770FE16E0BB6903F00403F8
:101EC000002B04D07B6A43F400637B620CE0BB69A7
:101ED00003F00803002B04D07B6A43F480537B6239
:101EE00002E0786800F06BF9BB6903F48073002BA3
:101EF00024D07B681B684FF480729A60BB6903F43E
:101F00000073002B03D07868FEF766FE16E0BB690D
:101F100003F48063002B04D07B6A43F400537B629C
:101F20000CE0BB6903F40063002B04D07B6A43F42C
:101F300080437B6202E0786800F04BF9BB6903F4F0
:101F40008033002B24D07B681B684FF480329A606A
:101F5000BB6903F40033002B03D07868FEF75CFE06
:101F600016E0BB6903F48023002B04D07B6A43F4A2
:101F700000437B620CE0BB6903F40023002B04D018
:101F80007B6A43F480337B6202E0786800F02BF9CF
:101F90003B6A03F00803002B0CD07B6903F01003AD
:101FA000002B07D07B6A43F400737B627B681B685D
:101FB0001022DA603B6A03F00403002B0BD07B692C
:101FC00003F00803002B06D07B681B680822DA6048
:101FD000786800F012F93B6A03F00203002B09D085
:101FE0007B681B68DB6803F00303002B02D0786872
:101FF000FEF732FE3B6A03F04003002B0CD03B6936
:1020000003F01003002B07D07B6A43F480637B62EC
:102010007B681B6810221A613B6A03F02003002BC7
:102020000BD03B6903F00803002B06D07B681B68CC
:1020300008221A61786800F0F4F83B6A03F0100394
:10204000002B09D07B681B681B6903F00303002B7E
:1020500002D0786800F0DBF83B6A03F40033002B11
:102060000BD0FB6903F01003002B06D07B681B68C4
:1020700010225A60786800F0DEF83B6A03F480337F
:10208000002B0BD0FB6903F00803002B06D07B6804
:102090001B6808225A60786800F0D7F83B6A03F49E
:1020A0000043002B7BD0FB6903F00403002B72D0AC
:1020B0003B6A03F48073002B08D0FB6803F0010334
:1020C000002B03D07B6A43F001037B623B6A03F47D
:1020D0000073002B08D0FB6803F00203002B03D031
:1020E0007B6A43F002037B623B6A03F48063002B4C
:1020F00008D0FB6803F00403002B03D07B6A43F095
:1021000004037B623B6A03F40063002B43D0FB684B
:1021100003F07003002B3ED0FB6803F07003602BCC
:102120002BD0602B2ED8502B22D0502B2AD8402BCE
:1021300019D0402B26D8302B10D0302B22D8102B82
:1021400002D0202B05D01DE07B6A43F008037B62A0
:1021500019E07B6A43F010037B6214E07B6A43F072
:1021600020037B620FE07B6A43F040037B620AE05E
:102170007B6A43F080037B6205E07B6A43F48073F3
:102180007B6200E000BF7B681B689A697B681B6804
:1021900022F070029A617B681B6804225A607B6A95
:1021A000002B08D07B685A6A7B6A1A437B685A62A4
:1021B0007868FEF72DFE00BF2837BD4680BD80B48D
:1021C00083B000AF786000BF0C37BD465DF8047B7C
:1021D000704780B483B000AF786000BF0C37BD4655
:1021E0005DF8047B704780B483B000AF786000BFB7
:1021F0000C37BD465DF8047B704780B483B000AFF8
:10220000786000BF0C37BD465DF8047B704780B432
:1022100083B000AF786000BF0C37BD465DF8047B2B
:10222000704780B483B000AF786000BF0C37BD4604
:102230005DF8047B704780B483B000AF786000BF66
:102240000C37BD465DF8047B704780B483B000AFA7
:10225000786000BF0C37BD465DF8047B7047000016
:1022600080B485B000AF78607B6803F00703FB6043
:102270000C4BDB68BB60BA684FF6FF031340BB60D2
:10228000FB681A02BB68134343F0BF6343F4003397
:10229000BB60044ABB68D36000BF1437BD465DF81D
:1022A000047B704700ED00E080B400AF044BDB68B6
:1022B0001B0A03F007031846BD465DF8047B704710
:1022C00000ED00E080B483B000AF0346FB7197F9E6
:1022D0000730002B0BDBFB7903F01F02074997F94E
:1022E00007305B09012000FA02F241F8232000BF09
:1022F0000C37BD465DF8047B704700BF00E100E08D
:1023000080B483B000AF03463960FB7197F90730A2
:10231000002B0ADB3B68DAB20C4997F9073012014F
:10232000D2B20B4483F800230AE03B68DAB20849D2
:10233000FB7903F00F03043B1201D2B20B441A766F
:1023400000BF0C37BD465DF8047B704700E100E03C
:1023500000ED00E080B489B000AFF860B9607A6049
:10236000FB6803F00703FB61FB69C3F10703042B60
:1023700028BF0423BB61FB690433062B02D9FB6928
:10238000033B00E000237B614FF0FF32BB6902FAA0
:1023900003F3DA43BB681A407B699A404FF0FF3180
:1023A0007B6901FA03F3D9437B680B40134318465A
:1023B0002437BD465DF8047B7047000080B582B0CD
:1023C00000AF78607B68013BB3F1807F01D30123CC
:1023D0000FE00A4A7B68013B53600F214FF0FF304A
:1023E000FFF78EFF054B00229A60044B07221A600C
:1023F000002318460837BD4680BD00BF10E000E04E
:1024000080B582B000AF78607868FFF729FF00BF21
:102410000837BD4680BD80B586B000AF0346B960C1
:102420007A60FB7300237B61FFF73EFF78617A6877
:10243000B9687869FFF78EFF024697F90F301146A9
:102440001846FFF75DFF00BF1837BD4680BD80B559
:1024500082B000AF0346FB7197F907301846FFF7CB
:1024600031FF00BF0837BD4680BD80B582B000AFE8
:1024700078607868FFF7A2FF034618460837BD4624
:1024800080BD80B500AF00F002F800BF80BD80B411
:1024900000AF00BFBD465DF8047B704780B489B0D3
:1024A00000AF7860396000237B6100233B6100232B
:1024B000BB610023FB616BE10122FB6902FA03F3BC
:1024C0007B613B681B687A6913403B613A697B69B1
:1024D0009A4240F05A813B685B6803F00303012B8A
:1024E00005D03B685B6803F00303022B30D17B68A7
:1024F0009B68BB61FB695B00032202FA03F3DB43C9
:10250000BA691340BB613B68DA68FB695B0002FA99
:1025100003F3BA691343BB617B68BA699A607B684D
:102520005B68BB610122FB6902FA03F3DB43BA6912
:102530001340BB613B685B681B0903F00102FB6948
:1025400002FA03F3BA691343BB617B68BA695A6044
:102550003B685B6803F00303032B17D07B68DB68E1
:10256000BB61FB695B00032202FA03F3DB43BA6938
:102570001340BB613B689A68FB695B0002FA03F396
:10258000BA691343BB617B68BA69DA603B685B6810
:1025900003F00303022B23D1FB69DA087B680832BE
:1025A00053F82230BB61FB6903F007039B000F2245
:1025B00002FA03F3DB43BA691340BB613B681A6953
:1025C000FB6903F007039B0002FA03F3BA691343A4
:1025D000BB61FB69DA087B680832B96943F82210ED
:1025E0007B681B68BB61FB695B00032202FA03F393
:1025F000DB43BA691340BB613B685B6803F00302CD
:10260000FB695B0002FA03F3BA691343BB617B68A1
:10261000BA691A603B685B6803F44033002B00F032
:10262000B4800023FB60604B5B6C5F4A43F48043E3
:1026300053645D4B5B6C03F48043FB60FB685B4A57
:10264000FB699B08023352F82330BB61FB6903F03E
:1026500003039B000F2202FA03F3DB43BA69134022
:10266000BB617B68524A93422BD07B68514A9342AC
:1026700025D07B68504A93421FD07B684F4A9342D3
:1026800019D07B684E4A934213D07B684D4A9342DF
:102690000DD07B684C4A934207D07B684B4A9342EB
:1026A00001D107230EE008230CE006230AE00523EE
:1026B00008E0042306E0032304E0022302E00123F0
:1026C00000E00023FA6902F0030292009340BA6925
:1026D0001343BB613549FB699B080233BA6941F872
:1026E00023203B4B9B68BB613B69DB43BA691340CA
:1026F000BB613B685B6803F48013002B03D0BA69AD
:102700003B691343BB61324ABB699360304BDB6862
:10271000BB613B69DB43BA691340BB613B685B68E3
:1027200003F40013002B03D0BA693B691343BB6168
:10273000274ABB69D360264B5B68BB613B69DB43BF
:10274000BA691340BB613B685B6803F40033002B3C
:1027500003D0BA693B691343BB611D4ABB6953602F
:102760001B4B1B68BB613B69DB43BA691340BB6110
:102770003B685B6803F48033002B03D0BA693B6984
:102780001343BB61124ABB691360FB690133FB61F0
:10279000FB690F2B7FF690AE00BF00BF2437BD460C
:1027A0005DF8047B704700BF0038024000380140EC
:1027B000000002400004024000080240000C0240F9
:1027C000001002400014024000180240001C0240A9
:1027D000003C014080B483B000AF78600B467B8042
:1027E00013467B707B78002B03D07A887B689A61D4
:1027F00003E07B881A047B689A6100BF0C37BD46F2
:102800005DF8047B7047000080B582B000AF0346DE
:10281000FB80084B5A69FB881340002B06D0054A01
:10282000FB885361FB88184600F006F800BF0837A4
:10283000BD4680BD003C014080B483B000AF03467C
:10284000FB8000BF0C37BD465DF8047B704780B548
:1028500086B002AF78607B68002B01D1012359E07C
:102860007B681B68FB607B6893F8D533DBB2002B79
:1028700006D17B68002283F8D423786808F058F8E2
:102880007B68032283F8D523FB68B3F1A04F02D104
:102890007B6800229A717B681B68184604F071FE01
:1028A0007B6818687B681A7C8DF8002004330ECB97
:1028B00004F0F2FD0346002B05D07B68022283F86A
:1028C000D523012326E07B681B680121184604F00C
:1028D00069FE0346002B05D07B68022283F8D523CE
:1028E000012317E07B6818687B681A7C8DF800204C
:1028F00004330ECB05F00CF80346002B05D07B68A3
:10290000022283F8D523012304E07B68012283F8A7
:10291000D523002318461037BD4680BD90B58BB037
:1029200004AF7860084611461A460346FB700B4612
:10293000BB7013467B703B8E7B617B6893F8D4330E
:10294000012B01D102239DE07B68012283F8D4236F
:10295000FA78796813461B019B1A9B000B441933C4
:1029600000221A70FA78796813461B019B1A9B00A3
:102970000B4414337A781A70FA78796813461B017D
:102980009B1A9B000B441533FA781A70FA78796811
:1029900013461B019B1A9B000B44263397F82C20EF
:1029A0001A70FA78BB7803F07F03D8B279681346BF
:1029B0001B019B1A9B000B44163302461A70FB78CE
:1029C0001946786800F0C8FB97F90230002B0ADA44
:1029D000FA78796813461B019B1A9B000B44173346
:1029E00001221A7009E0FA78796813461B019B1AD4
:1029F0009B000B44173300221A707B681B68184633
:102A000005F0EAF8386197F82C30012B0BD197F8D4
:102A10002830012B07D13B69002B04D17B69BC2BEB
:102A200001D9BC237B61FA78796813461B019B1A94
:102A30009B000B44183397F828201A70FA787B69AA
:102A400098B2796813461B019B1A9B000B442833EC
:102A500002461A807B6818687B699BB27C78BA78DA
:102A6000F978029397F82C30019397F82830009367
:102A7000234605F0D9F80346FB737B68002283F8F0
:102A8000D423FB7B18461C37BD4690BD80B584B06F
:102A900000AF78600B46FB700023FB737B6893F8F4
:102AA000D433012B01D102230FE07B68012283F88C
:102AB000D4237B681B68FA781146184605F06BFC36
:102AC0007B68002283F8D423FB7B18461037BD4671
:102AD00080BD000080B582B000AF78600846114626
:102AE0001A460346FB700B46BB7013467B70FA78A0
:102AF000796813461B019B1A9B000B441733BA7865
:102B00001A70FA78796813461B019B1A9B000B44D4
:102B100026337A781A703B7C002B14D1FA787968C6
:102B200013461B019B1A9B000B442A3303221A7085
:102B3000FA78796813461B019B1A9B000B441933E2
:102B40003A7F1A7009E0FA78796813461B019B1ADC
:102B50009B000B442A3302221A707B78032B00F26D
:102B6000028101A252F823F0792B0008512D0008B0
:102B70003D2C0008C72C00083B7C012B40F0F58061
:102B8000BB78002B2DD13B8B002B09D1FA787968CB
:102B900013461B019B1A9B000B443D3301221A7004
:102BA000FA78796813461B019B1A9B000B443D334E
:102BB0001B78002B0AD1FA78796813461B019B1AFF
:102BC0009B000B442A3300221A70CEE0FA78796811
:102BD00013461B019B1A9B000B442A3302221A70D6
:102BE000C3E0FA78796813461B019B1A9B000B44DB
:102BF0001A331B78012B40F0B880FA7879681346B5
:102C00001B019B1A9B000B443C331B78002B0AD101
:102C1000FA78796813461B019B1A9B000B442A33F0
:102C200000221A70A1E0FA78796813461B019B1AFA
:102C30009B000B442A3302221A7096E0BB78002BCB
:102C400020D1FA78796813461B019B1A9B000B442C
:102C50003D331B78002B0AD1FA78796813461B01A3
:102C60009B1A9B000B442A3300221A707EE0FA78EC
:102C7000796813461B019B1A9B000B442A330222DE
:102C80001A7073E0FA78796813461B019B1A9B004F
:102C90000B443C331B78002B0AD1FA787968134631
:102CA0001B019B1A9B000B442A3300221A705DE023
:102CB000FA78796813461B019B1A9B000B442A3350
:102CC00002221A7052E0BB78002B20D1FA78796882
:102CD00013461B019B1A9B000B443D331B78002BB2
:102CE0000AD1FA78796813461B019B1A9B000B44A2
:102CF0002A3300221A7039E0FA78796813461B01EA
:102D00009B1A9B000B442A3302221A702EE0FA7899
:102D1000796813461B019B1A9B000B443C331B78BC
:102D2000002B0AD1FA78796813461B019B1A9B0085
:102D30000B442A3300221A7018E0FA787968134697
:102D40001B019B1A9B000B442A3302221A700DE0D0
:102D5000FA78796813461B019B1A9B000B442A33AF
:102D600000221A7002E000BF00E000BFFA78796824
:102D700013461B019B1A9B000B442C337A691A6083
:102D8000FA78398B786813461B019B1A9B00034421
:102D900034331960FA78796813461B019B1A9B003B
:102DA0000B444C3300221A70FA78796813461B01E1
:102DB0009B1A9B000B44383300221A60FA7879681A
:102DC00013461B019B1A9B000B441533FA781A70AB
:102DD000FA78796813461B019B1A9B000B444D330C
:102DE00000221A707B681868FA7813461B019B1A38
:102DF0009B0010337A681344191D7B689B791A462F
:102E000005F03EF8034618460837BD4680BD00BFB2
:102E100080B586B000AF78607B681B683B613B691A
:102E2000FB607B681B68184604F032FD0346012BEB
:102E300040F0FB807B681B68184604F0F5FC0346F5
:102E4000002B00F0F1807B681B68184604F0ECFC56
:102E5000034603F40013B3F5001F04D17B681B681D
:102E60004FF400125A617B681B68184604F0DCFCC2
:102E7000034603F48013B3F5801F04D17B681B68FD
:102E80004FF480125A617B681B68184604F0CCFC32
:102E9000034603F08063B3F1806F04D17B681B6845
:102EA0004FF080625A617B681B68184604F0BCFCD6
:102EB000034603F00203022B03D17B681B68022246
:102EC0005A617B681B68184604F0AEFC034603F0A9
:102ED0000053B3F1005F20D17B681B684FF00052B4
:102EE0005A61FB6803F588631B6803F00103002B3C
:102EF00013D11021386904F0A1FB386904F0D0FB2C
:102F00007B685B7A022B05D17B681B680121184620
:102F100004F0C2FD786807F089FD7B681B681846DD
:102F200004F082FC034603F08073B3F1807F02D18A
:102F3000786801F033FD7B681B68184604F074FC68
:102F4000034603F00803082B06D1786807F052FD0A
:102F50007B681B6808225A617B681B68184604F06E
:102F600063FC034603F00073B3F1007F39D17B6843
:102F70001B68184605F0FEF9B86000237B6125E068
:102F80007B6903F00F03BA6822FA03F303F001032D
:102F9000002B18D07B695A01FB68134403F5A0632A
:102FA0001B6803F40043B3F5004F06D17B69DBB225
:102FB0001946786800F005F905E07B69DBB219462F
:102FC000786800F067FF7B6901337B617B685B7920
:102FD0001A467B699342D3D37B681B684FF000721B
:102FE0005A617B681B68184604F01EFC034603F018
:102FF0001003102B01D1012300E00023002B14D07B
:103000007B681B689A697B681B6822F010029A61D2
:10301000786801F0E4FB7B681B689A697B681B6831
:1030200042F010029A6100E000BF1837BD4680BD33
:1030300080B582B000AF78607B6893F8D433012B01
:1030400001D1022313E07B68012283F8D4237B683B
:103050001B680121184604F086FD7B681B68184632
:1030600004F07EFA7B68002283F8D42300231846FC
:103070000837BD4680BD80B582B000AF78607B6800
:1030800093F8D433012B01D102230DE07B68012298
:1030900083F8D4237B681B68184605F0D9FA7B684F
:1030A000002283F8D423002318460837BD4680BD8C
:1030B00080B582B000AF78607B681B68184604F06A
:1030C00028FD034618460837BD4680BD80B483B04E
:1030D00000AF78600B46FB70FA78796813461B01E5
:1030E0009B1A9B000B444C331B7818460C37BD468B
:1030F0005DF8047B704780B483B000AF78600B4606
:10310000FB70FA78796813461B019B1A9B000B44ED
:1031100038331B6818460C37BD465DF8047B704792
:1031200080B582B000AF78607B681B68184604F0F9
:103130006AFD034618460837BD4680BD80B582B09B
:1031400000AF78607B681B68184604F045FD0346B5
:1031500018460837BD4680BD80B483B000AF7860A4
:103160000B46FB70FA78796813461B019B1A9B008B
:103170000B441A3300221A70FA78796813461B013F
:103180009B1A9B000B441B3300221A70FA78796853
:1031900013461B019B1A9B000B44253300221A7017
:1031A000FA78796813461B019B1A9B000B44243361
:1031B00000221A70002318460C37BD465DF8047BC8
:1031C000704780B586B000AF78600B46FB707B68B7
:1031D0001B687B617B693B617B681B68FA781146E1
:1031E000184604F034FB034603F00403042B1AD101
:1031F000FB785A013B69134403F5A0631A46042384
:103200009360FA78796813461B019B1A9B000B4464
:103210004D3307221A707B681B68FA7811461846EE
:1032200005F0B9F89EE07B681B68FA7811461846ED
:1032300004F00DFB034603F48073B3F5807F1BD1CC
:10324000FB785A013B69134403F5A0631A464FF417
:1032500080739360FA78796813461B019B1A9B0070
:103260000B444D3308221A707B681B68FA781146AC
:10327000184605F090F875E07B681B68FA781146EF
:10328000184604F0E4FA034603F00803082B1AD1A9
:10329000FB785A013B69134403F5A0631A460823DF
:1032A0009360FA78796813461B019B1A9B000B44C4
:1032B0004D3306221A707B681B68FA78114618464F
:1032C00005F069F84EE07B681B68FA7811461846ED
:1032D00004F0BDFA034603F48063B3F5806F1BD19D
:1032E000FB785A013B69134403F5A0631A464FF477
:1032F00080639360FA78796813461B019B1A9B00E0
:103300000B444D3309221A707B681B68FA7811460A
:10331000184605F040F825E07B681B68FA781146EE
:10332000184604F094FA034603F08003802B19D169
:10333000FB785A013B69134403F5A0631A468023C6
:103340009360FA78796813461B019B1A9B000B4423
:103350004D3307221A707B681B68FA7811461846AD
:1033600005F019F87B681B68FA781146184604F0D6
:103370006EFA034603F40073B3F5007F12D17B6845
:103380001B68FA781146184605F005F8FB785A01D3
:103390003B69134403F5A0631A464FF4007393602E
:1033A00000F075BD7B681B68FA781146184604F07A
:1033B0004EFA034603F00103012B40F02881FB780D
:1033C0005A013B69134403F5A0631A462023936016
:1033D000FA78796813461B019B1A9B000B441B3338
:1033E0001B78012B19D1FA78796813461B019B1AB7
:1033F0009B000B441B3300221A70FB785A013B6977
:10340000134403F5A0635B68FA7851013A690A44F2
:1034100002F5A06223F4803353607B689B79002B14
:103420001BD0FA78796813461B019B1A9B000B444A
:1034300030331968FB785A013B69134403F5A063E4
:103440001B69C3F31203FA78C91A786813461B0183
:103450009B1A9B00034438331960FA787968134645
:103460001B019B1A9B000B444D3301221A70FA7802
:10347000796813461B019B1A9B000B4444330022BE
:103480001A60FB785A013B69134403F5A0631A469E
:1034900001239360FA78796813461B019B1A9B00FD
:1034A0000B4426331B78002B0AD0FA787968134630
:1034B0001B019B1A9B000B4426331B78022B10D157
:1034C0007B681B68FA781146184604F064FFFB78A5
:1034D0005A013B69134403F5A0631A461023936015
:1034E0003DE0FA78796813461B019B1A9B000B4458
:1034F00026331B78032B0AD0FA78796813461B0110
:103500009B1A9B000B4426331B78012B27D1FB7899
:103510005A013B69134403F5A0631B68FA78510113
:103520003A690A4402F5A06243F000531360FA7846
:10353000796813461B019B1A9B000B444C330122F4
:103540001A70FA78796813461B019B1A9B000B448A
:103550004C331A78FB781946786807F075FA7B685F
:103560009B79012B3BD1FA78796813461B019B1A92
:103570009B000B4438331968FA78786813461B01AE
:103580009B1A9B00034428331B880B44591EFA786E
:10359000786813461B019B1A9B00034428331B8841
:1035A000B1FBF3F303F00103002B00F07084FA7811
:1035B000796813461B019B1A9B000B443C331B7814
:1035C000FA7883F00103D8B2796813461B019B1A7D
:1035D0009B000B443C3302461A7000F058BCFA784A
:1035E000796813461B019B1A9B000B443C331B78E4
:1035F000FA7883F00103D8B2796813461B019B1A4D
:103600009B000B443C3302461A7000F040BC7B68C0
:103610001B68FA781146184604F019F9034603F0BE
:103620002003202B31D1FB785A013B69134403F569
:10363000A0631A4620239360FA78796813461B0129
:103640009B1A9B000B441A331B78012B40F01F84FC
:10365000FA78796813461B019B1A9B000B441B33B5
:1036600001221A70FA78796813461B019B1A9B0095
:103670000B444D3303221A707B681B68FA7811469D
:10368000184604F088FE00F002BC7B681B68FA78DC
:103690001146184604F0DBF8034603F00203022B40
:1036A00040F00583FB785A013B69134403F5A0639E
:1036B0001A4602239360FA78796813461B019B1A15
:1036C0009B000B444D331B78012B14D1FA78796899
:1036D00013461B019B1A9B000B444D3302221A70A8
:1036E000FA78796813461B019B1A9B000B444C33F4
:1036F00001221A70CCE2FA78796813461B019B1AF2
:103700009B000B444D331B78062B14D1FA78796853
:1037100013461B019B1A9B000B444D3302221A7067
:10372000FA78796813461B019B1A9B000B444C33B3
:1037300005221A70ACE2FA78796813461B019B1ACD
:103740009B000B444D331B78072B0BD0FA7879681C
:1037500013461B019B1A9B000B444D331B78092B0E
:1037600040F0A680FA78796813461B019B1A9B00EB
:103770000B444D3302221A70FA78796813461B0104
:103780009B1A9B000B4444331B68591C78681346F2
:103790001B019B1A9B00034444331960FA78796833
:1037A00013461B019B1A9B000B4444331B68022BDE
:1037B00043D9FA78796813461B019B1A9B000B4486
:1037C000443300221A60FA78796813461B019B1A69
:1037D0009B000B441A331B78012B23D1FA787968AC
:1037E00013461B019B1A9B000B441B3300221A70CB
:1037F000FA78796813461B019B1A9B000B441C3313
:1038000000221A70FB785A013B69134403F5A06348
:103810005B68FA7851013A690A4402F5A06223F420
:1038200080335360FA78796813461B019B1A9B001A
:103830000B444C3304221A7029E2FA787968134653
:103840001B019B1A9B000B444C3302221A70FA781E
:10385000796813461B019B1A9B000B4426331B7887
:10386000002B0BD0FA78796813461B019B1A9B003A
:103870000B4426331B78022B40F00982FB785A0157
:103880003B69134403F5A0631B68FB60FB6823F0EE
:103890008043FB60FB6843F00043FB60FB785A0108
:1038A0003B69134403F5A0631A46FB681360EEE11D
:1038B000FA78796813461B019B1A9B000B444D3321
:1038C0001B78052B40F0C880FA78796813461B01F5
:1038D0009B1A9B000B444D3302221A70FA787968C8
:1038E00013461B019B1A9B000B441B331B78012BB7
:1038F00040F0CE81FA78796813461B019B1A9B0031
:103900000B4426331B78032B6BD1FA787968134666
:103910001B019B1A9B000B4448331B68591C786899
:1039200013461B019B1A9B00034448331960FA7825
:10393000796813461B019B1A9B000B4448331B6894
:10394000022B43D9FA78796813461B019B1A9B0016
:103950000B44483300221A60FA78796813461B0139
:103960009B1A9B000B441B3300221A70FA7879686B
:1039700013461B019B1A9B000B4444331B68022B0C
:1039800009D8FA78796813461B019B1A9B000B44EF
:103990001C3301221A70FB785A013B69134403F56A
:1039A000A0635B68FA7851013A690A4402F5A062A3
:1039B00023F480335360FA78796813461B019B1A0D
:1039C0009B000B444C3304221A7014E0FA78796897
:1039D00013461B019B1A9B000B444C3302221A70A6
:1039E00009E0FA78796813461B019B1A9B000B4487
:1039F0004C3302221A70FA78796813461B019B1A1D
:103A00009B000B4426331B78002B0BD0FA78796887
:103A100013461B019B1A9B000B4426331B78022B79
:103A200040F03681FB785A013B69134403F5A063EB
:103A30001B68FB60FB6823F08043FB60FB6843F07E
:103A40000043FB60FB785A013B69134403F5A06314
:103A50001A46FB6813601BE1FA78796813461B016C
:103A60009B1A9B000B444D331B78032B40F0818045
:103A7000FA78796813461B019B1A9B000B444D335F
:103A800002221A70FA78796813461B019B1A9B0070
:103A90000B441B331B78012B40F0FA80FA787968CD
:103AA00013461B019B1A9B000B444C3302221A70D5
:103AB000FB785A013B69134403F5A0635B68FA780D
:103AC00051013A690A4402F5A06243F4803353601D
:103AD000FB785A013B69134403F5A063DB68FA786D
:103AE00051013A690A4402F5A06243F04003D360F1
:103AF000FB785A013B69134403F5A063DB68FA784D
:103B000051013A690A4402F5A06223F02003D36010
:103B1000FA78796813461B019B1A9B000B442633E5
:103B20001B78002B0BD0FA78796813461B019B1A7F
:103B30009B000B4426331B78022B40F0A980FB78B6
:103B40005A013B69134403F5A0631B68FB60FB68E3
:103B500023F08043FB60FB6843F00043FB60FB788D
:103B60005A013B69134403F5A0631A46FB681360CE
:103B70008EE0FA78796813461B019B1A9B000B4470
:103B80004D331B78042B43D1FA78796813461B0117
:103B90009B1A9B000B444D3302221A70FA78796805
:103BA00013461B019B1A9B000B444C3302221A70D4
:103BB000FA78796813461B019B1A9B000B44263345
:103BC0001B78002B0AD0FA78796813461B019B1AE0
:103BD0009B000B4426331B78022B59D1FB785A01EA
:103BE0003B69134403F5A0631B68FB60FB6823F08B
:103BF0008043FB60FB6843F00043FB60FB785A01A5
:103C00003B69134403F5A0631A46FB6813603FE069
:103C1000FA78796813461B019B1A9B000B444D33BD
:103C20001B78082B26D1FA78796813461B019B1A5A
:103C30009B000B444D3302221A70FA7879681346C0
:103C40001B019B1A9B000B4444331B68591C78686A
:103C500013461B019B1A9B00034444331960FA78F6
:103C6000796813461B019B1A9B000B444C330422BA
:103C70001A700DE0FA78796813461B019B1A9B00B5
:103C80000B444D331B78022B00F0008100E000BF95
:103C9000FA78796813461B019B1A9B000B444C333E
:103CA0001A78FB781946786806F0CEFEEFE07B685C
:103CB0001B68FA781146184603F0C9FD034603F065
:103CC0004003402B2FD1FB785A013B69134403F585
:103CD000A0631A4640239360FA78796813461B0163
:103CE0009B1A9B000B444D3305221A70FA787968B1
:103CF00013461B019B1A9B000B441A331B78002BA5
:103D000009D1FA78796813461B019B1A9B000B4472
:103D1000443300221A607B681B68FA781146184603
:103D200004F039FBB3E07B681B68FA78114618464B
:103D300003F08DFD034603F01003102B40F0A78025
:103D4000FA78796813461B019B1A9B000B442633B3
:103D50001B78032B1BD1FA78796813461B019B1A39
:103D60009B000B44443300221A60FA7879681346AA
:103D70001B019B1A9B000B444D3304221A707B6875
:103D80001B68FA781146184604F005FB3FE0FA7804
:103D9000796813461B019B1A9B000B4426331B7842
:103DA000002B0AD0FA78796813461B019B1A9B00F6
:103DB0000B4426331B78022B29D1FA7879681346F5
:103DC0001B019B1A9B000B44443300221A607B6842
:103DD0009B79002B0AD0FA78796813461B019B1A4D
:103DE0009B000B441B331B78012B10D1FA787968A8
:103DF00013461B019B1A9B000B444D3304221A707F
:103E00007B681B68FA781146184604F0C4FAFA7801
:103E1000796813461B019B1A9B000B441B331B78CC
:103E2000012B29D1FA78796813461B019B1A9B0054
:103E30000B441B3300221A70FB785A013B69134470
:103E400003F5A0635B68FA7851013A690A4402F508
:103E5000A06223F480335360FB785A013B6913441A
:103E600003F5A063DB68FA7851013A690A4402F568
:103E7000A06243F02003D360FB785A013B691344EE
:103E800003F5A0631A461023936000E000BF1837C3
:103E9000BD4680BD80B586B000AF78600B46FB7034
:103EA0007B681B687B617B693B617B681B68FA7878
:103EB0001146184603F0CBFC034603F00403042B21
:103EC0001BD1FB785A013B69134403F5A0631A46E2
:103ED00004239360FA78796813461B019B1A9B00B0
:103EE0000B444D3307221A707B681B68FA78114621
:103EF000184604F050FA00F06FBC7B681B68FA7833
:103F00001146184603F0A3FC034603F02003202BC0
:103F100040F08280FB785A013B69134403F5A063AB
:103F20001A4620239360FA78796813461B019B1A7E
:103F30009B000B4419331B78012B24D1FA78796844
:103F400013461B019B1A9B000B44193300221A7065
:103F5000FA78796813461B019B1A9B000B444C337B
:103F600002221A70FA78796813461B019B1A9B008B
:103F70000B444D3303221A707B681B68FA78114694
:103F8000184604F008FAFA78796813461B019B1A60
:103F90009B000B441A331B78012B40F01D84FA78E8
:103FA000796813461B019B1A9B000B441B331B783B
:103FB000002B40F01184FA78796813461B019B1A94
:103FC0009B000B4426331B78012B09D0FA787968C3
:103FD00013461B019B1A9B000B441B3301221A70D2
:103FE000FA78796813461B019B1A9B000B444D33EA
:103FF00003221A707B681B68FA781146184604F091
:10400000CAF9FA78796813461B019B1A9B000B4486
:10401000443300221A60DFE37B681B68FA7811469C
:10402000184603F014FC034603F40073B3F5007F55
:1040300011D1FB785A013B69134403F5A0631A467A
:104040004FF4007393607B681B68FA78114618463A
:1040500004F0A1F9C0E37B681B68FA7811461846A2
:1040600003F0F5FB034603F00103012B68D1FA7856
:10407000796813461B019B1A9B000B4444330022B2
:104080001A607B681B68FA781146184603F0DFFB5C
:10409000034603F04003402B12D1FA7879681346A7
:1040A0001B019B1A9B000B44193301221A70FB78E9
:1040B0005A013B69134403F5A0631A4640239360F9
:1040C000FA78796813461B019B1A9B000B441B333B
:1040D0001B78002B19D0FA78796813461B019B1ABC
:1040E0009B000B441B3300221A70FB785A013B697A
:1040F000134403F5A0635B68FA7851013A690A44F6
:1041000002F5A06223F480335360FB785A013B69C7
:10411000134403F5A0631A4601239360FA78796883
:1041200013461B019B1A9B000B444D3301221A704E
:104130007B681B68FA781146184604F02CF94BE3AB
:104140007B681B68FA781146184603F080FB03462B
:1041500003F04003402B39D1FA78796813461B01EC
:104160009B1A9B000B444D3305221A70FA7879682C
:1041700013461B019B1A9B000B441A331B78002B20
:1041800009D1FA78796813461B019B1A9B000B44EE
:10419000193301221A70FA78796813461B019B1AA9
:1041A0009B000B44443300221A607B681B68FA783A
:1041B0001146184604F0EFF8FB785A013B691344A6
:1041C00003F5A0631A464023936005E37B681B68F0
:1041D000FA781146184603F03AFB034603F0080349
:1041E000082B1AD1FB785A013B69134403F5A063ED
:1041F0001A4608239360FA78796813461B019B1AC4
:104200009B000B444D3306221A707B681B68FA78BA
:104210001146184604F0BFF8DEE27B681B68FA78A6
:104220001146184603F013FB034603F01003102B4E
:1042300044D1FA78796813461B019B1A9B000B4402
:10424000443300221A60FA78796813461B019B1ADE
:104250009B000B444D3304221A70FA787968134698
:104260001B019B1A9B000B4419331B78002B14D1A4
:10427000FA78796813461B019B1A9B000B4418338C
:104280001B78002B09D1FA78796813461B019B1A19
:104290009B000B44193301221A707B681B68FA7863
:1042A0001146184604F077F8FB785A013B6913442D
:1042B00003F5A0631A46102393608DE27B681B68A8
:1042C000FA781146184603F0C2FA034603F0800359
:1042D000802B69D17B689B79002B11D1FA787968A2
:1042E00013461B019B1A9B000B444D3307221A7087
:1042F0007B681B68FA781146184604F04CF849E0D0
:10430000FA78796813461B019B1A9B000B444433CF
:104310001B68591C786813461B019B1A9B000344B9
:1043200044331960FA78796813461B019B1A9B0085
:104330000B4444331B68022B22D9FA787968134660
:104340001B019B1A9B000B44443300221A60FA782D
:10435000796813461B019B1A9B000B444C330422C3
:104360001A70FA78796813461B019B1A9B000B445C
:104370004C331A78FB781946786806F065FB09E03B
:10438000FA78796813461B019B1A9B000B444C3347
:1043900002221A70FB785A013B69134403F5A063AB
:1043A0001A468023936017E27B681B68FA781146EF
:1043B000184603F04CFA034603F48063B3F5806FAC
:1043C0001BD1FA78796813461B019B1A9B000B449A
:1043D0004D3309221A707B681B68FA78114618461B
:1043E00003F0D9FFFB785A013B69134403F5A0633E
:1043F0001A464FF480639360EEE17B681B68FA789D
:104400001146184603F023FA034603F00203022B79
:1044100040F0DF81FB785A013B69134403F5A06348
:104420001A4602239360FA78796813461B019B1A97
:104430009B000B444D331B78012B40F09380FA789E
:10444000796813461B019B1A9B000B444D330222D3
:104450001A70FA78796813461B019B1A9B000B446B
:104460004C3301221A70FA78796813461B019B1AA3
:104470009B000B4426331B78022B0BD0FA7879680B
:1044800013461B019B1A9B000B4426331B78032BFE
:1044900040F090817B689B79002B15D1FA78796880
:1044A00013461B019B1A9B000B443D331B78FA7883
:1044B00083F00103D8B2796813461B019B1A9B0055
:1044C0000B443D3302461A707B689B79012B40F008
:1044D0007181FA78796813461B019B1A9B000B4483
:1044E00034331B68002B00F06581FA787968134635
:1044F0001B019B1A9B000B4434331968FA787868C7
:1045000013461B019B1A9B00034428331B880B4452
:10451000591EFA78786813461B019B1A9B000344C6
:1045200028331B88B1FBF3F3BB60BB6803F00103C6
:10453000002B00F03F81FA78796813461B019B1A23
:104540009B000B443D331B78FA7883F00103D8B20B
:10455000796813461B019B1A9B000B443D330246AE
:104560001A7027E1FA78796813461B019B1A9B00A1
:104570000B444D331B78032B20D1FA78796813460E
:104580001B019B1A9B000B444D3302221A70FA78D0
:10459000796813461B019B1A9B000B441B331B7845
:1045A000012B40F00781FA78796813461B019B1AAA
:1045B0009B000B444C3302221A70FBE0FA787968B6
:1045C00013461B019B1A9B000B444D331B78042B95
:1045D0003AD1FA78796813461B019B1A9B000B4469
:1045E0004D3302221A70FA78796813461B019B1A20
:1045F0009B000B444C3302221A70FA7879681346F8
:104600001B019B1A9B000B441B331B78012B40F0B2
:10461000D180FA78796813461B019B1A9B000B44E2
:104620001B3300221A70FB785A013B69134403F5CF
:10463000A0635B68FA7851013A690A4402F5A06206
:1046400023F480335360B5E0FA78796813461B0190
:104650009B1A9B000B444D331B78052B14D1FA7821
:10466000796813461B019B1A9B000B444D330222B1
:104670001A70FA78796813461B019B1A9B000B4449
:104680004C3302221A7095E0FA78796813461B01C0
:104690009B1A9B000B444D331B78062B14D1FA78E0
:1046A000796813461B019B1A9B000B444D33022271
:1046B0001A70FA78796813461B019B1A9B000B4409
:1046C0004C3305221A7075E0FA78796813461B019D
:1046D0009B1A9B000B444D331B78072B0AD0FA78AA
:1046E000796813461B019B1A9B000B444D331B78C2
:1046F000092B70D1FA78796813461B019B1A9B002D
:104700000B444D3302221A70FA78796813461B0164
:104710009B1A9B000B4444331B68591C7868134652
:104720001B019B1A9B00034444331960FA78796893
:1047300013461B019B1A9B000B4444331B68022B3E
:1047400014D9FA78796813461B019B1A9B000B4415
:10475000443300221A60FA78796813461B019B1AC9
:104760009B000B444C3304221A7022E0FA787968DB
:1047700013461B019B1A9B000B444C3302221A70F8
:10478000FB785A013B69134403F5A0631B68FB6087
:10479000FB6823F08043FB60FB6843F00043FB6051
:1047A000FB785A013B69134403F5A0631A46FB6882
:1047B000136000BFFA78796813461B019B1A9B00AF
:1047C0000B444C331A78FB781946786806F03CF9AC
:1047D00002E000BF00E000BF1837BD4680BD80B5D5
:1047E0008AB000AF78607B681B687B627B6A3B6243
:1047F0007B681B681B6AFB61FB6903F00F03BB61ED
:10480000FB695B0C03F00F037B61FB691B09C3F3BE
:104810000A033B617B69022B04D07B69052B00F006
:10482000B680B7E03B69002B00F0B3807968BA69C5
:1048300013461B019B1A9B000B442C331B68002B57
:1048400000F0A7807968BA6913461B019B1A9B0088
:104850000B4438331A683B69D1187868BA69134633
:104860001B019B1A9B00034434331B68994200F2DE
:1048700083807B6818687968BA6913461B019B1AA4
:104880009B000B442C331B683A6992B2194602F024
:1048900073FF7968BA6913461B019B1A9B000B448E
:1048A0002C331A683B69D1187868BA6913461B0122
:1048B0009B1A9B0003442C3319607968BA6913462C
:1048C0001B019B1A9B000B4438331A683B69D118B3
:1048D0007868BA6913461B019B1A9B00034438335E
:1048E0001960BB695A013B6A134403F5A0631B6955
:1048F000DB0CC3F30903FB607968BA6913461B013B
:104900009B1A9B000B4428331B881A463B69934231
:104910003FD1FB68002B3CD0BB695A013B6A134472
:1049200003F5A0631B68BB60BB6823F08043BB60DA
:10493000BB6843F00043BB60BB695A013B6A134448
:1049400003F5A0631A46BB6813607968BA69134619
:104950001B019B1A9B000B443C331B7883F0010323
:10496000D8B27968BA6913461B019B1A9B000B44A5
:104970003C3302461A700CE07968BA6913461B0191
:104980009B1A9B000B444C3304221A7001E000BFB9
:1049900000E000BF00BF2837BD4680BD80B586B0AF
:1049A00000AF78607B681B687B617B693B613B691A
:1049B00003F588631B68FB603B6903F588631B682C
:1049C000BB60BB6823F02E03BB60FB6803F00203EF
:1049D000022B0BD1FB6803F00103012B02D1786895
:1049E00006F016F8BB6843F00203BB60FB6803F0F7
:1049F0000803082B32D1BB6843F00803BB60FB6897
:104A000003F00403042B26D17B685B7A022B13D1BD
:104A1000FB6803F4C023B3F5802F06D17B681B68C5
:104A20000221184603F038F811E07B681B68012169
:104A3000184603F031F80AE07B68DB79012B06D1D8
:104A40003B6903F580631A464EF66023536078682D
:104A500006F008F802E0786806F012F8FB6803F048
:104A60002003202B03D1BB6843F02003BB603B69CC
:104A700003F588631A46BB68136000BF1837BD464C
:104A800080BD000080B584B000AF78607B68002BEB
:104A900001D101232BE17B6893F83D30DBB2002B81
:104AA00006D17B68002283F83C207868FCF7FCFB89
:104AB0007B68242283F83D207B681B681A687B682A
:104AC0001B6822F001021A607B681B681A687B6809
:104AD0001B6842F400421A607B681B681A687B6896
:104AE0001B6822F400421A6001F0DAF8F8607B6873
:104AF0005B68814A934207D8FB68804A934294BF1F
:104B000001230023DBB206E0FB687D4A934294BF99
:104B100001230023DBB2002B01D00123E7E0FB6877
:104B2000784AA2FB03239B0CBB607B681B685B6815
:104B300023F03F017B681B68BA680A435A607B68B0
:104B40001B681B6A23F03F017B685B686A4A9342DB
:104B500002D8BB68013309E0BB684FF4967202FBD0
:104B600003F3694AA2FB03239B0901337A681268A5
:104B70000B4313627B681B68DB6923F44F4222F00E
:104B8000FF027B685B685C498B4219D8FB68591E41
:104B90007B685B685B00B1FBF3F3591C40F6FC7368
:104BA0000B40002B0AD0FB68591E7B685B685B00DA
:104BB000B1FBF3F30133C3F30B0351E004234FE0E4
:104BC0007B689B68002B11D1FB68581E7B68596875
:104BD0000B465B000B44B0FBF3F30133C3F30B0351
:104BE000002B0CBF01230023DBB212E0FB68581E30
:104BF0007B6859680B469B000B4499000B44B0FB43
:104C0000F3F30133C3F30B03002B0CBF0123002389
:104C1000DBB2002B01D0012322E07B689B68002BD4
:104C20000ED1FB68581E7B6859680B465B000B442D
:104C3000B0FBF3F30133C3F30B0343F400430FE082
:104C4000FB68581E7B6859680B469B000B44990013
:104C50000B44B0FBF3F30133C3F30B0343F44043C2
:104C6000796809681343CB617B681B681B6823F074
:104C7000C0017B68DA697B681B6A1A437B681B6822
:104C80000A431A607B681B689B6823F4034323F084
:104C9000FF037A6811697A68D26811437A681268EA
:104CA0000B4393607B681B68DB6823F0FF017B6824
:104CB0005A697B689B691A437B681B680A43DA6000
:104CC0007B681B681A687B681B6842F001021A60E7
:104CD0007B6800221A647B68202283F83D207B6871
:104CE00000221A637B68002283F83E2000231846C6
:104CF0001037BD4680BD00BFA08601007F841E0026
:104D0000FF083D0083DE1B43D34D621080B588B0A1
:104D100002AFF8607A601A460B467B8113463B81EE
:104D2000FCF7FEFC7861FB6893F83D30DBB2202B8A
:104D300040F0E0807B690093192301227049F868F4
:104D400000F064F90346002B01D00223D3E0FB6896
:104D500093F83C30012B01D10223CCE0FB68012207
:104D600083F83C20FB681B681B6803F00103012BE0
:104D700007D0FB681B681A68FB681B6842F00102D9
:104D80001A60FB681B681A68FB681B6822F40062E3
:104D90001A60FB68212283F83D20FB68102283F80B
:104DA0003E20FB6800221A64FB687A685A62FB683E
:104DB0003A895A85FB685B8D9AB2FB681A85FB6855
:104DC000504ADA6279897B693A6AF86800F09CF89F
:104DD0000346002B01D001238DE000233B61FB68DB
:104DE0001B685B693B61FB681B689B693B613B69B6
:104DF00066E07A69396AF86800F022FA0346002B07
:104E00000DD0FB681B6C042B07D1FB681B681A686C
:104E1000FB681B6842F400721A6001236BE0FB68B8
:104E20005B6A1A78FB681B681A61FB685B6A5A1C2C
:104E3000FB685A62FB685B8D9BB2013B9AB2FB68D0
:104E40005A85FB681B8D013B9AB2FB681A85FB688B
:104E50001B685B6903F00403042B1BD1FB681B8DEB
:104E6000002B17D0FB685B6A1A78FB681B681A6115
:104E7000FB685B6A5A1CFB685A62FB685B8D9BB2DD
:104E8000013B9AB2FB685A85FB681B8D013B9AB2C5
:104E9000FB681A857A69396AF86800F019FA0346DE
:104EA000002B0DD0FB681B6C042B07D1FB681B6823
:104EB0001A68FB681B6842F400721A6001231AE04A
:104EC000FB681B8D002B94D1FB681B681A68FB687C
:104ED0001B6842F400721A60FB68202283F83D20B0
:104EE000FB68002283F83E20FB68002283F83C2008
:104EF000002300E0022318461837BD4680BD00BFDE
:104F0000020010000000FFFF80B588B002AFF8601B
:104F10007A603B600B467B81FB68DB6A7B617B6967
:104F2000082B06D07B69012B03D07B6913F5803FEA
:104F300008D1FB681B681A68FB681B6842F4807222
:104F40001A600BE0FB681B6B122B07D1FB681B6818
:104F50001A68FB681B6842F480721A603B68009311
:104F60007B6800224FF00111F86800F04FF803460B
:104F7000002B0DD0FB681B681B6803F48073B3F52E
:104F8000807F03D1FB684FF400721A64032335E07D
:104F9000FB681B69B3F5804F08D17B89DBB21A46E9
:104FA000FB681B6802F0FE021A611BE07B89DB11C3
:104FB000DBB203F00603DBB263F00F03DAB2FB6887
:104FC0001B681A613B687A680E49F86800F098F827
:104FD0000346002B01D0012310E07B89DAB2FB6885
:104FE0001B681A613B687A680749F86800F088F81E
:104FF0000346002B01D0012300E000231846183798
:10500000BD4680BD080001000200010080B584B0EB
:1050100000AFF860B9603B601346FB7148E03B6845
:10502000B3F1FF3F44D0FCF77BFB0246BB69D31AC8
:105030003A689A4202D33B68002B39D1BB681B0CFB
:10504000DBB2012B0DD1FB681B685B69DA43BB68DF
:1050500013409BB2002B0CBF01230023DBB21A4686
:105060000CE0FB681B689B69DA43BB6813409BB28A
:10507000002B0CBF01230023DBB21A46FB799A42B6
:1050800016D1FB6800221A63FB68202283F83D20BA
:10509000FB68002283F83E20FB681B6C43F0200273
:1050A000FB681A64FB68002283F83C20012323E09C
:1050B000BB681B0CDBB2012B0DD1FB681B685B6965
:1050C000DA43BB6813409BB2002B0CBF01230023C3
:1050D000DBB21A460CE0FB681B689B69DA43BB68CD
:1050E00013409BB2002B0CBF01230023DBB21A46F6
:1050F000FB799A4293D0002318461037BD4680BDF5
:1051000080B584B000AFF860B9607A603B6071E050
:10511000FB681B685B6903F48063B3F5806F23D180
:10512000FB681B681A68FB681B6842F400721A600F
:10513000FB681B686FF480625A61FB6800221A6387
:10514000FB68202283F83D20FB68002283F83E2084
:10515000FB681B6C43F00402FB681A64FB680022C6
:1051600083F83C20012367E07B68B3F1FF3F41D027
:10517000FCF7D6FA02463B68D31A7A689A4202D301
:105180007B68002B36D1BB681B0CDBB2012B0CD12A
:10519000FB681B685B69DA43BB6813409BB2002B5A
:1051A00014BF01230023DBB20BE0FB681B689B6983
:1051B000DA43BB6813409BB2002B14BF01230023CA
:1051C000DBB2002B16D0FB6800221A63FB6820229A
:1051D00083F83D20FB68002283F83E20FB681B6CAF
:1051E00043F02002FB681A64FB68002283F83C202D
:1051F000012321E0BB681B0CDBB2012B0CD1FB6847
:105200001B685B69DA43BB6813409BB2002B14BF79
:1052100001230023DBB20BE0FB681B689B69DA43C8
:10522000BB6813409BB2002B14BF01230023DBB2E9
:10523000002B7FF46DAF002318461037BD4680BDAC
:1052400080B584B000AFF860B9607A6034E0F86887
:1052500000F086F80346002B01D0012334E0BB6840
:10526000B3F1FF3F28D0FCF75BFA02467B68D31A04
:10527000BA689A4202D3BB68002B1DD1FB681B6839
:105280005B6903F08003802B16D0FB6800221A6351
:10529000FB68202283F83D20FB68002283F83E2033
:1052A000FB681B6C43F02002FB681A64FB68002259
:1052B00083F83C20012307E0FB681B685B6903F06F
:1052C0008003802BC3D1002318461037BD4680BD14
:1052D00080B584B000AFF860B9607A6034E0F868F7
:1052E00000F03EF80346002B01D0012334E0BB68F8
:1052F000B3F1FF3F28D0FCF713FA02467B68D31ABC
:10530000BA689A4202D3BB68002B1DD1FB681B68A8
:105310005B6903F00403042B16D0FB6800221A63B8
:10532000FB68202283F83D20FB68002283F83E20A2
:10533000FB681B6C43F02002FB681A64FB680022C8
:1053400083F83C20012307E0FB681B685B6903F0DE
:105350000403042BC3D1002318461037BD4680BD7B
:1053600080B483B000AF78607B681B685B6903F42E
:105370008063B3F5806F1BD17B681B686FF480621C
:105380005A617B6800221A637B68202283F83D20E3
:105390007B68002283F83E207B681B6C43F004028C
:1053A0007B681A647B68002283F83C20012300E0BC
:1053B000002318460C37BD465DF8047B704700009B
:1053C00080B586B000AF78607B68002B01D10123E7
:1053D00067E27B681B6803F00103002B75D0884BE4
:1053E0009B6803F00C03042B0CD0854B9B6803F0E7
:1053F0000C03082B12D1824B5B6803F48003B3F5D6
:10540000800F0BD17E4B1B6803F40033002B5BD065
:105410007B685B68002B57D1012342E27B685B68A5
:10542000B3F5803F06D1764B1B68754A43F4803351
:1054300013601DE07B685B68B3F5A02F0CD1704B47
:105440001B686F4A43F4802313606D4B1B686C4AE2
:1054500043F4803313600BE0694B1B68684A23F404
:1054600080331360664B1B68654A23F48023136006
:105470007B685B68002B13D0FCF752F9386108E0B9
:10548000FCF74EF902463B69D31A642B01D903237A
:1054900007E25B4B1B6803F40033002BF0D014E0F1
:1054A000FCF73EF9386108E0FCF73AF902463B693F
:1054B000D31A642B01D90323F3E1514B1B6803F486
:1054C0000033002BF0D100E000BF7B681B6803F0C5
:1054D0000203002B63D04A4B9B6803F00C03002BA4
:1054E0000BD0474B9B6803F00C03082B1CD1444B9B
:1054F0005B6803F48003002B16D1414B1B6803F05B
:105500000203002B05D07B68DB68012B01D001234F
:10551000C7E13B4B1B6823F0F8027B681B69DB008B
:10552000374913430B603AE07B68DB68002B20D0DF
:10553000344B01221A60FCF7F3F8386108E0FCF7FD
:10554000EFF802463B69D31A022B01D90323A8E1E5
:105550002B4B1B6803F00203002BF0D0284B1B6879
:1055600023F0F8027B681B69DB00254913430B60BD
:1055700015E0244B00221A60FCF7D2F8386108E0ED
:10558000FCF7CEF802463B69D31A022B01D903235C
:1055900087E11B4B1B6803F00203002BF0D17B68F3
:1055A0001B6803F00803002B36D07B685B69002B77
:1055B00016D0154B01221A60FCF7B2F8386108E0EA
:1055C000FCF7AEF802463B69D31A022B01D903233C
:1055D00067E10B4B5B6F03F00203002BF0D01BE085
:1055E000094B00221A60FCF79BF838610EE0FCF7CB
:1055F00097F802463B69D31A022B07D9032350E1DF
:105600000038024000004742800E4742884B5B6FE3
:1056100003F00203002BEAD17B681B6803F004034C
:10562000002B00F097800023FB75814B1B6C03F06F
:105630008053002B0FD10023BB607D4B1B6C7C4A39
:1056400043F0805313647A4B1B6C03F08053BB60B0
:10565000BB680123FB75774B1B6803F48073002B39
:1056600018D1744B1B68734A43F480731360FCF7C2
:1056700057F8386108E0FCF753F802463B69D31A43
:10568000022B01D903230CE16A4B1B6803F48073DE
:10569000002BF0D07B689B68012B06D1644B1B6FFD
:1056A000634A43F0010313671CE07B689B68052B8A
:1056B0000CD15F4B1B6F5E4A43F0040313675C4BD6
:1056C0001B6F5B4A43F0010313670BE0584B1B6FE2
:1056D000574A23F001031367554B1B6F544A23F0BD
:1056E000040313677B689B68002B15D0FCF718F840
:1056F00038610AE0FCF714F802463B69D31A41F21C
:105700008832934201D90323CBE0494B1B6F03F04E
:105710000203002BEED014E0FCF702F838610AE037
:10572000FBF7FEFF02463B69D31A41F288329342EF
:1057300001D90323B5E03E4B1B6F03F00203002B9E
:10574000EED1FB7D012B05D1394B1B6C384A23F080
:10575000805313647B689B69002B00F0A180344B5D
:105760009B6803F00C03082B5CD07B689B69022BC1
:1057700041D1314B00221A60FBF7D2FF386108E0BB
:10578000FBF7CEFF02463B69D31A022B01D9032354
:1057900087E0274B1B6803F00073002BF0D17B6878
:1057A000DA697B681B6A1A437B685B6A9B011A4350
:1057B0007B689B6A5B08013B1B041A437B68DB6ABE
:1057C0001B061B4913434B601B4B01221A60FBF75E
:1057D000A7FF386108E0FBF7A3FF02463B69D31A35
:1057E000022B01D903235CE0114B1B6803F000730B
:1057F000002BF0D054E0104B00221A60FBF790FF12
:10580000386108E0FBF78CFF02463B69D31A022B94
:1058100001D9032345E0064B1B6803F00073002BFE
:10582000F0D13DE07B689B69012B07D1012338E073
:105830000038024000700040600047421B4B5B682C
:10584000FB607B689B69012B28D0FB6803F4800216
:105850007B68DB699A4221D1FB6803F03F027B68D9
:105860001B6A9A421AD1FA6847F6C07313407A68E5
:10587000526A9201934211D1FB6803F440327B6873
:105880009B6A5B08013B1B049A4207D1FB6803F04B
:1058900070627B68DB6A1B069A4201D0012300E03C
:1058A000002318461837BD4680BD00BF00380240AF
:1058B00080B584B000AF786039607B68002B01D17F
:1058C0000123CCE0684B1B6803F007033A689A4257
:1058D0000CD9654B3A68D2B21A70634B1B6803F05F
:1058E00007033A689A4201D00123B8E07B681B683D
:1058F00003F00203002B20D07B681B6803F0040335
:10590000002B05D0594B9B68584A43F4E0539360F1
:105910007B681B6803F00803002B05D0534B9B6882
:10592000524A43F460439360504B9B6823F0F0026B
:105930007B689B684D4913438B607B681B6803F051
:105940000103002B44D07B685B68012B07D1474BD8
:105950001B6803F40033002B19D101237FE07B681F
:105960005B68022B03D07B685B68032B07D13F4B3E
:105970001B6803F00073002B09D101236FE03B4B40
:105980001B6803F00203002B01D1012367E0374BB2
:105990009B6823F003027B685B68344913438B6088
:1059A000FBF7BEFEF8600AE0FBF7BAFE0246FB68B2
:1059B000D31A41F28832934201D903234FE02B4B93
:1059C0009B6803F00C027B685B689B009A42EBD1FA
:1059D000254B1B6803F007033A689A420CD2224B0E
:1059E0003A68D2B21A70204B1B6803F007033A687A
:1059F0009A4201D0012332E07B681B6803F0040364
:105A0000002B08D0194B9B6823F4E0527B68DB68BD
:105A1000164913438B607B681B6803F00803002B57
:105A200009D0124B9B6823F460427B681B69DB0042
:105A30000E4913438B6000F021F802460B4B9B6824
:105A40001B0903F00F030A49CB5C22FA03F3094A4E
:105A50001360094B1B681846FBF71EFE002318460F
:105A60001037BD4680BD00BF003C024000380240F8
:105A7000DCB8000800000020040000202DE9B04F31
:105A800094B000AF00237B640023FB6400233B64DD
:105A90000023BB64794B9B6803F00C03082B0DD0EB
:105AA000082B00F2E180002B02D0042B03D0DBE0B6
:105AB000734BBB64DBE0734BBB64D8E06F4B5B683C
:105AC00003F03F037B646D4B5B6803F48003002BA2
:105AD00063D06A4B5B689B090022BB63FA63BB6BB4
